:400000000010002011000000C5050000C505000080B500AF00F0DAFA80B584B000AF021CFB1D1A70204A3B1C0B3312781A701F4A3B1C0A3312781A700423013BFB6018E091
:400040001B4B1868391C0B31FA68131C5B009B18C3185B780B70164B1868391C0A31FA68131C5B009B18C3189B780B70FB68013BFB60FB68002B0ADB0D4B1968FA68131CF1
:400080005B009B185B5CFA1D12789A42D8D9094B3A1C0B3212781A60074B3A1C0A3212781A60BD4604B080BDCCF1FF0FCDF1FF0FCC0000201CFF0B4020FF0B4080B500AF4F
:4000C0001C4B1C4A12688021C9020A431A601820FFF7A2FF184B19221A60052000F080FD164B174A1278D2B21A60052000F060FE104B104A1168134A0A401A60124B134A47
:400100001A60134B10221A60124B30221A60124B20221A60114B802212061A60104B114A1A60114B114A1A60114B124A1A60BD4680BDC04600010B402CFF0B4028FF0B405C
:40014000E5F1FF0FFFFFFBFF04010B4006000080080202400C0202402002024008010B40000002400E000080400002402700008080000240CF00008080B582B000AF72B631
:40018000FB1D00221A7023E0FB1D1A78131C5B009B185B00394A9B183B603B681A78597809020A43997809040A43DB781B0613431A1C3B6819795B791B020B439BB2101CAF
:4001C000191C00F081FAFB1D1A78FB1D01321A70FB1D1B78012BD7D9294B992212041A60284BEE2212021A60274BEE221A60274B20221A60264BC42292021A60254B202248
:400200001A60254BC02252031A60244BD82212011A60234B03221A60224B24221A60224B992212041A60214B992212041A60204B992212041A601F4B1E4A1278D2B20221CB
:400240000A43D2B21A701C4B1B4A1278D2B23C218A43D2B214210A43D2B21A70154B154A1278D2B216210A43D2B21A70FFF726FF00F03AFABD4602B080BDC046281300003A
:40028000000001400C000140100001400000044008000440180004400801044008030440000404400804044000500F4010500F4030500F4000700F4001700F4010B5064C8C
:4002C0002378002B07D1054B002B02D0044800E000BF0123237010BDE0000020000000002013000008B5084B002B03D00748084900E000BF07480368002B03D0064B002BF0
:4003000000D0984708BDC0460000000020130000E4000020C80000200000000080B500AF00F01CF800F01EF800F044F900F046F90F2000F01FF8084B181C00F015FD0020FB
:4003400000F018F8044B181C00F00EFD0220012100F05CF8FEE7C0468813000080B500AFBD4680BD80B500AF00F0D8F900F088FBBD4680BD80B586B000AF021CFB1D1A709B
:400380003B1C0F330F221A703B1C0E3300221A703B1C173300221A703B6900221A70FB1D1B780F2B0CD13B1C0F334220191C0122002300F041FA021C3B1C17331A700FE06D
:4003C000FB1D1B78002B0BD13B1C0E334220191C0122002300F030FA021C3B1C17331A703B69181C00210022002300F081F83B691B78FA1D12789A4201D1002300E0FF2321
:400400005BB2181CBD4606B080BDC04680B584B000AF0A1CFB1D011C1970BB1D1A70FB6800221A703B1C0B3300221A70BB1D1B78012B19D1FB1D1B780122111C99400B1C55
:40044000DAB22A4B1B78DBB21343DBB2DAB2274B1A70264B1A783B1C0A331A703B1C0A331A78224B1A7021E0BB1D1B78002B1BD1FB1D1B780122111C99400B1CDBB2DB4389
:40048000DBB21A4A1278D2B21340DBB2DAB2174B1A70164B1A783B1C0A331A703B1C0A331A78124B1A7001E0FF231AE03B1C0A334220191C0122002300F0BEF9021C3B1C3D
:4004C0000B331A70FB6800200021002200F010F8FB681A78054B1B789A4201D1002300E0FF235BB2181CBD4604B080BD0401002080B586B000AFF860B9607A603B603B1C1A
:40050000173300221A703B1C14334220191C0222002300F01FFA021C3B1C17331A70FB68002B06D03B1C14331B78DB08DAB2FB681A70BB68002B09D03B1C14331B781A1C78
:400540000E2313405B10DAB2BB681A707B68002B18D03B1C14331B781A1C012313400AD03B1C14335B785B09DBB204221343DAB27B681A7006E03B1C14335B785B09DAB287
:400580007B681A703B68002B07D03B1C14335A783F231340DAB23B681A703B1C17331B78002B01D1002300E0FF235BB2181CBD4606B080BD80B500AFBD4680BD80B500AFB6
:4005C000BD4680BD80B500AFFEE7C04680B586B000AF224B7B61224B3B61204B7B6135E03B691B68FB603B695B68BB603B699B683B6000237B600CE0FB681A68BB681A6072
:40060000BB680433BB60FB680433FB607B6804337B607A683B689A42EED13B69DB683B6000237B6008E0BB6800221A60BB680433BB607B6804337B607A683B689A42F2D186
:400640003B6910333B617B69013B7B617B69002BC6D100F037FEFFF761FEFEE7010000005813000080B582B000AF00237B600FE07B68032B04D8104B7A689200D35800E0C0
:400680000E4B0F4A796889008B507B6801337B607B682F2BECD9FFF76FFD0A4B00221A608023DB058022D205126801210A431A60BD4602B080BDC04600000000C5050000DB
:4006C00000000020C000002080B582B000AF786039607A683B68101C00211A1C00F018FEBD4602B080BDC04680B500AFBD4680BD80B500AF00F02CF8BD4680BD80B500AF2D
:40070000054B054A1268802109060A431A6000F017F8BD4680BDC0460000064080B500AF064B1B78002B04D1FFF7E2FF034B01221A70FFF7E3FFBD4680BDC046FC000020CA
:4007400080B500AF0A2000F0D9FABD4680BDC04680B500AF234B234A12680C210A431A60214B00221A60214B214A1A60214B224A1A60224B00221A60214B00221A60214B0D
:400780001D4A1A60204B00221A600A2000F0CCFA0A20032100F05EFA1C4B0A20191C00F033FA1B4B00221A601A4B00221A601A4B00221A60194B1422FF321A60184B00222A
:4007C0001A60184B00221A60174B10221A70174B00221A80164B00221A60164B00221A60BD4680BD700006400000064060000640770800800003064007010080040306404B
:40080000100306400002064004020640D90D0000C80E0640880E0640480F0640080F0640C80F0640880F06400501002014010020240100200C01002080B586B000AFF860BA
:40084000B9607A603B6004237B61BB68002B20D0324B1B78DBB2102B0CD10A2000F064FA2F4B1A680123134001D0082300E000237B610EE0294B1B78DBB2602B09D1294BD3
:400880001B889BB2082293439AB2264B1A8000237B617B69002B38D1204B28221A70224B00221A60214B00221A60214B7A681A60204BBA681A603B68DAB21F4B1A70FB6835
:4008C0005A00FF231340FB60164B1B889BB2022293439AB2134B1A80184B194A1A60194B40221A603A680123134005D000F0E0F8154BFA681A6005E0134BFA681A60134B50
:4009000002221A60124B40221A600A2000F0F6F97B69181CBD4606B080BDC046050100206400064014010020080100200C01002010010020280100201C010020000F06405C
:4009400017030000800F06404002064068000640880F064080B586B000AFF860B9607A603B6004237B61BB68002B20D0374B1B78DBB2102B0CD10A2000F0D6F9344B1A6890
:400980000123134001D0082300E000237B610EE02E4B1B78DBB2602B09D12E4B1B889BB2082293439AB22B4B1A8000237B617B69002B43D1254B29221A70274B00221A60BF
:4009C000264B7A681A60264BBA681A603B68DAB2244B1A70FB685A00FF23134001221343FB601C4B1B889BB2012293439AB2194B1A801D4B1D4A1A603A680123134005D01E
:400A000000F056F81A4BFA681A6005E0184BFA681A60184B02221A60104B1B68072B03D8154B04221A6009E0144B144A1268802149000A431A60104B08221A600A2000F03D
:400A40005DF97B69181CBD4606B080BD0501002064000640140100202401002020010020180100201C010020000F0640170300004002064068000640C80F064060000640A9
:400A800080B582B000AF0A2000F04EF9074B1B889BB27B60054B00221A800A2000F02EF97B68181CBD4602B080BDC0461401002080B582B000AF264B1B687B60C04600F036
:400AC0004FF8031C002BFAD0002000F057F8214B204A12680F218A431A601F4B1E4A1268520052081A607A682023134011D0002000F044F80A2000F05BF9012000F03EF8A9
:400B0000C04600F05FF8031C002BFAD00A2000F04FF9002000F032F80A2000F049F90F4B01221A600C4B0C4A1268802109060A431A60084B074A12680F218A430E210A4330
:400B40001A60012000F01AF8BD4602B080BDC0466400064010000140000006406800064080B500AF044B1A68022313405B08DBB2181CBD4680BDC0460404044080B584B0A5
:400B800000AF021CFB1D1A700D4B1B68DAB23B1C0F3301218A431A70FB1D1A7801231340D9B23B1C0F333A1C0F3212780A431A70034B3A1C0F3212781A60BD4604B080BD33
:400BC0000004044080B500AF044B1B68DAB201231340DBB2181CBD4680BDC046040404400230800804D0C0460138FDD1C046C046C0467047EFF3108072B6704780F31088E1
:400C00007047C046C046C04680B584B000AF021C3960FB1D1A7080239B05FB60FB1D1B781F2B02D9002000F095F8FB1D1B7810339B00FA68D3181B68BB60FB1D1B7810330D
:400C40009B00FA68D3183A681A60BB68181CBD4604B080BD90B587B000AF0A1CFB1D011C1970BB1D1A70BB1D1B78032B02D9002000F070F8FB1D1B781F2B02D9002000F0E8
:400C800069F8FB1D1A7803231340DB0006337B613C1C1334FFF7AEFF031C2370FB1D1B789B08DBB29B0014495B181B68FB607B690322111C99400B1CDA43FB681340FB6044
:400CC000BB1D1A787B69111C99400B1CFA681343FB60FB1D1B789B08DBB29B00064A9B18FA681A603B1C13331B78181CFFF786FFBD4607B090BDC04600E400E080B582B0FA
:400D000000AF021CFB1D1A70064BFA1D11781F220A400121081C9040021C1A60BD4602B080BDC04600E100E080B582B000AF021CFB1D1A70064BFA1D11781F220A400121ED
:400D4000081C9040021C1A60BD4602B080BDC04680E100E080B582B000AF021CFB1D1A7001BEBD4602B080BD80B582B000AF786008E00C4B1B68181CFFF732FF7B680A4AE5
:400D80009B187B607A6880231B029A42F1D8074B1B687A685343181CFFF722FFBD4602B080BDC046DC0000200080FFFFD400002080B582B000AF021CBB1D1A80BB1D1B883F
:400DC000044A12785343181CFFF70AFFBD4602B080BDC046D800002080B582B000AF00233B60C34B1B68002B02D0C14B1B689847C04B1A680123134002D0BF4B00221A6016
:400E0000BE4B1B78DAB220231340DBB2002B3CD0BB4B1A6880235B0013400AD0B94B1B889BB2C022920013439AB2B64B1A8001233B60B34B1A68012313400AD0B14B1B88A9
:400E40009BB29022920013439AB2AE4B1A8001233B603B68002B18D0A84B1B78DAB201231340DBB2002B01D0012300E00223A54A128892B291B21A1C0B1C13439BB29AB2A0
:400E8000A04B1A809D4B00221A709C4B1B78DAB220231340DBB2002B00D1ACE1984B1A68102313401CD0984B10221A60934B1B78DAB201231340DBB2002B01D0012300E000
:400EC0000223904A128892B291B21A1C0B1C13439BB29AB28B4B1A80884B10221A70C0E1864B1B78DAB208231340DBB2002B29D0834B1A68022313400ED0834B02221A60B5
:400F0000804B1B889BB28822920013439AB27D4B1A8001233B6015E0784B1B78DAB201231340DBB2002B03D0744B25221A7009E0724B24221A70754B1B68002B02D0744B19
:400F400010221A606D4B1B78DAB204231340DBB2002B00D113E1694B1B78DAB201231340DBB2002B5CD06B4B1A680823134034D0694B1A68694B19680F231940684B1B68E3
:400F8000CB18D31A7B607B68082B02D908237B600DE07B68002B0AD1624B624A1168624A0A401A6008237B6001233B6011E010E05E4B1A685A4B1B68D2185D4B1B68DBB2DC
:400FC0001370574B1B685A1C554B1A607B68013B7B607B68002BEBD11EE04E4B1A680423134019D0514B1A684D4B1B68D218504B1B68DBB213704A4B1B685A1C484B1A608D
:40100000474B1A68444B1B689A4203D2494B04221A6001E001233B60474B484A1A60AEE0374B1A680223134032D0374B02221A60434B1A68434B19680F231940414B186885
:4010400080231B02034001D0012300E00023CB18D21A3B4B1A603A4B1A683B4B1A60294B1B889BB28422920013439AB2254B1A80364B364A1268802149020A431A60334BAB
:40108000324A1168324A0A401A6001233B6076E0304B1A681023134066D015E0284B1A681A4B1B689A420ED22B4B2C4A1168244A12688A181278D2B21A60214B1B685A1CC3
:4010C0001F4B1A6000E005E01E4B1A680F231340082BE3D11A4B1A680C4B1B689A4202D10B4B40221A601E4B1E4A1A6047E0C046000100208C0E0640880E064005010020D3
:401100000C0F064014010020000F064010010020880F0640CC0F064020010020080306402401002060000640FFFEFFFF180100204003064068000640C00F0640ED0F00009C
:4011400008010020080206400C01002004020640FFFFFEFF8C0F06404002064028010020800F0640F30700003F4B1A684023134005D03E4B1A683E4B1A6001233B603B68FA
:40118000002B6ED03B4B3B4A11683B4A0A401A603A4B00221A603A4B00221A60394B1B78DAB202231340DBB2002B19D0364B1B78DAB201231340DBB2002B01D0092300E04F
:4011C0000A23324A128892B291B21A1C0B1C13439BB29AB22D4B1A802B4B60221A7040E02B4B2C4A116820220A4001D0182200E010221A6035E0244B1B78DAB21023134074
:40120000DBB2002B2DD1244B234A1268520052081A601D4B10221A70164B164A11681F4A0A401A60134B134A11681D4A0A401A60124B00221A60124B00221A60194B1A4AD8
:401240001A601A4B1A4A1A601A4B1B4A1A601B4B1B4A1A60104B104A1268802109060A431A60BD4602B080BD8C0F0640080100200C01002060000640FFFEFFFFC80F06409B
:40128000880F06401C0100200501002014010020680006406400064000000640FF5FFFFFFFFCFFFF800F0640ED0F0000C00F0640F3070000400F0640FF0F0000000F0640EE
:4012C0001703000070B50E4B0E4D0024ED1AAD101E1CAC4204D0A300F35898470134F8E700F028F8084B094D0024ED1AAD101E1CAC4204D0A300F35898470134F8E770BD8B
:4013000040130000401300004013000048130000031C8218934202D019700133FAE77047000000000400000000300F40000400400F400004F8B5C046F8BC08BC9E467047C4
:40134000E502000065060000F8B5C046F8BC08BC9E467047BD02000068130000C8000020180000005000000000000000C0F1FF0F00366E01C05D0000180000000000E02E24
:40138000000000000000000000000000000000000000000000000000000000000000000000000000000000000000000000000000000000000000000000000000000000002D
:4013C00000000000000000000000000000000000000000000000000000000000000000000000000000000000000000000000000000000000000000000000000000000000ED
:4014000000000000000000000000000000000000000000000000000000000000000000000000000000000000000000000000000000000000000000000000000000000000AC
:40144000000000000000000000000000000000000000000000000000000000000000000000000000000000000000000000000000000000000000000000000000000000006C
:0200000490303A
:02000000097E77
:0200000490402A
:200000000000000000000000000000000000000000000000000000000000000000000000E0
:0200000490501A
:0C000000000204C81193110104CE1B1172
:0200000490600A
:0100000001FE
:00000001FF