:400000000010002011000000250800002508000080B500AF00F032FC80B584B000AF021CFB1D1A70204A3B1C0B3312781A701F4A3B1C0A3312781A700423013BFB6018E071
:400040001B4B1868391C0B31FA68131C5B009B18C3185B780B70164B1868391C0A31FA68131C5B009B18C3189B780B70FB68013BFB60FB68002B0ADB0D4B1968FA68131CF1
:400080005B009B185B5CFA1D12789A42D8D9094B3A1C0B3212781A60074B3A1C0A3212781A60BD4604B080BDCCF1FF0FCDF1FF0FD00000201CFF0B4020FF0B4080B500AF4B
:4000C0001C4B1C4A12688021C9020A431A601820FFF7A2FF184B19221A60052000F0ACFD164B174A1278D2B21A60052000F0B8FD104B104A1168134A0A401A60124B134AC4
:400100001A60134B10221A60124B30221A60124B20221A60114B802212061A60104B114A1A60114B114A1A60114B124A1A60BD4680BDC04600010B402CFF0B4028FF0B405C
:40014000E5F1FF0FFFFFFBFF04010B4006000080080202400C0202402002024008010B40000002400E000080400002402700008080000240CF00008080B582B000AF72B631
:40018000FB1D00221A7023E0FB1D1A78131C5B009B185B00394A9B183B603B681A78597809020A43997809040A43DB781B0613431A1C3B6819795B791B020B439BB2101CAF
:4001C000191C00F0D9FBFB1D1A78FB1D01321A70FB1D1B78012BD7D9294B992212041A60284BEE2212021A60274BEE221A60274B20221A60264BC42292021A60254B2022EF
:400200001A60254BC02252031A60244BD82212011A60234B03221A60224B24221A60224B992212041A60214B992212041A60204B992212041A601F4B1E4A1278D2B20221CB
:400240000A43D2B21A701C4B1B4A1278D2B23C218A43D2B214210A43D2B21A70154B154A1278D2B216210A43D2B21A70FFF726FF00F092FBBD4602B080BDC046CC18000038
:40028000000001400C000140100001400000044008000440180004400801044008030440000404400804044000500F4010500F4030500F4000700F4001700F4010B5064C8C
:4002C0002378002B07D1054B002B02D0044800E000BF0123237010BD4801002000000000AC15000008B5084B002B03D00748084900E000BF07480368002B03D0064B002BF9
:4003000000D0984708BDC04600000000AC1500004C010020C80000200000000080B500AF00F020F800F064F800F0D2F800F086F962B61B2000F080FB074B181C00F008FC94
:400340001B2000F079FB054B181C00F001FC044B181C00F0FDFBFEE7B0150000B4150000B815000080B500AFBD4680BD80B58EB000AF0123391D074A081C111C1A1C00F03A
:4003800011FD3B1D181C00F0E3FB0123181CBD460EB080BDD415000080B58EB000AF0123391D074A081C111C1A1C00F0FBFC3B1D181C00F0CDFB0123181CBD460EB080BDA1
:4003C000F815000080B58EB000AF0123391D074A081C111C1A1C00F0E5FC3B1D181C00F0B7FB0123181CBD460EB080BD5016000080B500AFBD4680BD80B584B000AF021C67
:40040000FB1D1A703B1C0F3300221A7000235BB2181CBD4604B080BD80B592B000AF021CFB1D1A70FB1D1A780123381C0C30074900F0B8FC3B1C0C33181C00F089FB0123E3
:40044000DBB25BB2181CBD4612B080BD9017000080B592B000AF021CFB1D1A70FB1D1A780123381C0C30074900F09CFC3B1C0C33181C00F06DFB0123DBB25BB2181CBD46D2
:4004800012B080BDC017000090B595B002AF0A1CFB1D011C1970BB1D1A70FB1D1A78BB1D1B7801210C1C381C0C300849009400F079FC3B1C0C33181C00F04AFB0123DBB2FC
:4004C0005BB2181CBD4613B090BDC046F817000080B500AF024B181C00F054FBBD4680BDE504000090B583B000AFFC1D00F090F9031C23704C4B1B78DBB2002B3ED1FB1D52
:400500001B78413B162B37D89A00484BD3181B689F46FFF72BFF031C181C00F095F82CE0FFF750FF031C181C00F0D6F825E0FFF733FF031C181C00F0ABF81EE00720FFF75C
:400540006BFF031C181C482100F0EAF815E00020FFF762FF031C181C4B2100F0E1F80CE0314B01221A7008E02F4B03221A7004E02D4B04221A7000E0C0464EE02A4B1B7841
:40058000DBB2012B0ED1FB1D1B78303BDBB2181CFFF732FF031C181C00F0E6F8224B00221A703AE0204B1B78DBB2032B0ED1FB1D1B78303BDBB2181CFFF74AFF031C181C50
:4005C00000F0EEF8184B00221A7026E0164B1B78DBB2042B21D1164B1B78DBB2002B04D1FB1D1A78124B1A7017E0114B1B78DBB2DBB2313BDAB2FB1D1B78313BDBB2101C94
:40060000191CFFF741FF031C181C00F0E5F8084B00221A70044B00221A70064B064A12681A60BD4603B090BD7C0100206C1800007D010020C00F0740CC0F074080B500AFC2
:4006400000F0C4F9BD4680BD80B582B000AF021CFB1D1A70FB1D1B78002B0DD0FB1D1B78C82B09D8542000F0E7F9FB1D1B78181C00F0E2F9002306E0582000F0DDF95420DC
:4006800000F0DAF9FF235BB2181CBD4602B080BD80B582B000AF021CFB1D1A70FB1D1B78002B0DD0FB1D1B78642B09D8412000F0C3F9FB1D1B78181C00F0BEF9002306E0E2
:4006C000582000F0B9F9412000F0B6F9FF235BB2181CBD4602B080BD80B582B000AF021CFB1D1A70FB1D1B78002B0DD0FB1D1B78642B09D84C2000F09FF9FB1D1B78181C14
:4007000000F09AF9002306E0582000F095F94C2000F092F9FF235BB2181CBD4602B080BD80B582B000AF0A1CFB1D011C1970BB1D1A70FB1D1B785BB2002B06D1BB1D1B787A
:40074000181C00F079F9002308E0582000F074F9BB1D1B78181C00F06FF9FF235BB2181CBD4602B080BDC04680B582B000AF021CFB1D1A70FB1D1B785BB2002B04D15720AC
:4007800000F05AF9002306E0582000F055F9572000F052F9FF235BB2181CBD4602B080BD80B582B000AF021CFB1D1A70FB1D1B785BB2002B04D1562000F03EF9002306E0FC
:4007C000582000F039F9562000F036F9FF235BB2181CBD4602B080BD80B582B000AF021CFB1D1A70FB1D1B785BB2002B04D1462000F022F9002306E0582000F01DF9462089
:4008000000F01AF9FF235BB2181CBD4602B080BD80B500AF00F07AF9031CDBB2181CBD4680BDC04680B500AFFEE7C04680B584B000AF78600F4B1A687B68D3181A1C0E4BFB
:40084000D31A802B09DC0B4B1B68FB60094B1A687B68D218074B1A6007E000F065FA031C0C221A6001235B42FB60FB68181CBD4604B080BDCC0000209801002080B586B0A4
:4008800000AF224B7B61224B3B61204B7B6135E03B691B68FB603B695B68BB603B699B683B6000237B600CE0FB681A68BB681A60BB680433BB60FB680433FB607B680433A5
:4008C0007B607A683B689A42EED13B69DB683B6000237B6008E0BB6800221A60BB680433BB607B6804337B607A683B689A42F2D13B6910333B617B69013B7B617B69002BBA
:40090000C6D100F017FAFFF709FDFEE7010000003419000080B582B000AF00237B600FE07B68032B04D8104B7A689200D35800E00E4B0F4A796889008B507B6801337B603D
:400940007B682F2BECD9FFF717FC0A4B00221A608023DB058022D205126801210A431A60BD4602B080BDC046000000002508000000000020C000002080B582B000AF786009
:4009800039607A683B68101C00211A1C00F001FABD4602B080BDC04680B500AFBD4680BD80B500AF00F05EF8BD4680BD80B500AF054B054A1268802109060A431A6000F0C1
:4009C00017F8BD4680BDC0460000074080B500AF064B1B78002B04D1FFF7E2FF034B01221A70FFF7E3FFBD4680BDC0468001002080B500AFBD4680BD80B582B000AF0023A5
:400A00007B60044B1B687B607B68181CBD4602B080BDC0464003074080B582B000AF054B1A680F2313407B607B68181CBD4602B080BDC0460803074080B582B000AF7860FE
:400A4000C046064B1A680F231340082BF9D0044B7A681A60BD4602B080BDC046080207404002074080B500AF174B184A1A60184B00221A60174B01221A60174B174A1A6042
:400A8000174B07221A60174B00221A60164B01221A60164B114A1A60154B00221A60154B00221A60144B00221A60144B00221A60134B00221A60134B04221A60124B00229A
:400AC0001A60BD4680BDC046000007400B000002400007404800074000030740070000800403074010030740440007400002074004020740880E0740C80E0740480F07409A
:400B0000080F0740C80F0740880F074080B582B000AF00237B60FFF77FFF031C002B03D0FFF76AFF031C7B60084B1A68D8239B00134005D000237B60044BD82292001A6077
:400B40007B68181CBD4602B080BDC046C00F074080B584B000AF78600023FB6009E07A68FB68D3181B78181CFFF766FFFB680133FB607A68FB68D3181B78002BEFD1BD4604
:400B800004B080BD80B582B000AF786000F048F87B68181C00F008F8032000F011F800F035F8BD4602B080BD80B582B000AF7860024B7A68DA66BD4602B080BD0000002085
:400BC00090B585B000AF021CFB1D1A701E23FB603C1C0B3400F03AF8031C23700A4B0A4A126892009108FA1D1078FA68041C9440221C0A431A603B1C0B331B78181C00F071
:400C000029F8BD4605B090BD08E400E080B500AF024B802212011A60BD4680BD00E100E080B500AF024B802212011A60BD4680BD80E100E0000000000230800804D0C046EC
:400C40000138FDD1C046C046C0467047EFF3108072B6704780F310887047C046C046C04680B582B000AF021CBB1D1A80BB1D1B88044A12785343181CFFF7DEFFBD4602B034
:400C800080BDC046DC000020002934D00123002210B488422CD301242407A14204D2814202D209011B01F8E7E400A14204D2814202D249005B00F8E7884201D3401A1A4344
:400CC0004C08A04202D3001B5C0822438C08A04202D3001B9C082243CC08A04202D3001BDC082243002803D01B0901D00909E3E7101C10BC7047002801D00020C04307B455
:400D0000024802A14018029003BDC046190000000029F0D003B5FFF7B9FF0EBC4243891A1847C0467047C046014B18687047C0464401002070B50E4B0E4D0024ED1AAD10EB
:400D40001E1CAC4204D0A300F35898470134F8E700F0DEFD084B094D0024ED1AAD101E1CAC4204D0A300F35898470134F8E770BD1C1900001C1900001C1900002419000054
:400D800010B50023934203D0CC5CC4540133F9E710BD031C8218934202D019700133FAE7704700000EB400B59CB01DAB04CB822202A992008A810A4A02908A604A610122E9
:400DC0005242CA81074A086110681D9A019300F06BF8029A002313701CB008BC03B01847FFFFFF7F44010020F0B58D6885B0071C0C1C03920193AB4245D390228B89D2009F
:400E000013423DD062690326564309692068F20F401A96190290021C0198013212187610964200D2161C381C5A050FD5311C00F021FB051E13D0029A2169FFF7A1FFA289DA
:400E4000184B134080221343A38111E0321C00F065FB051E0CD1381C216900F0C3FA0C233B60A389402213430120A381404217E0029B2561ED1825606661019DF61AA660F2
:400E80000198A84200D2019D2A1C2068039900F090FAA2680020531BA36023685D19256005B0F0BD7FFBFFFFF0B59FB0039005938B890E1C171C19060FD53269002A0CD12B
:400EC000402100F0D7FA30603061002803D103990C230B60C9E04023736106AD00236B6120236B763023AB763C1C2378002B03D1E21B029211D003E0252BF9D00134F4E7F3
:400F00000398311C3A1C029BFFF76EFF013000D1A6E06969029A8B186B612378002B00D19EE0012252426A606A4600235B3201342B60EB60AB601370AB654E4F2178381CE5
:400F4000052200F02BFA002807D0C71B2B680120B840184328600134EFE72B68D90603D56A4620215B3211701A0703D56A462B215B32117022782A2A01D0099B0EE0059A7E
:400F8000111D12680591002A01DB099204E05242EA60022213432B60013409E02278303A092A04D80A214B4301349B18F6E7099323782E2B18D163782A2B09D1059B023483
:400FC0001A1D1B680592002B0DDA01235B420AE0013400232278303A092A04D80A214B4301349B18F6E70793234F2178381C032200F0D4F9002806D0C71B2B684020B84054
:4010000018432860013421781C480622671C297600F0C4F9002812D0194B002B06D1059B0722073393430833059314E005AB00930398291C321C134B00E000BF07E005AB8F
:4010400000930398291C321C0E4B00F091F804900499013104D06A69049953186B6143E7B3895A0601D40B9801E0012040421FB0F0BDC046DA180000E0180000E4180000D5
:4010800000000000E90D0000F7B5151C01930A698B68061C0C1C934200DA131C221C2B6043321278002A01D001332B602068800602D52B6802332B60216806270F401FD08D
:4010C000231C43331B785A1E9341226892061FD5E11840313020C870211C5A1C45310978A21840320233D17012E0221C301C019919320123089FB847013011D0009F0137F4
:401100000097E0682968009F431A9F42EDDBD7E7221C301C01994332089FB847013002D10120404223E0206806212B68E26801400025042903D1D51AEB43DB171D40A2688A
:4011400023699A4201DDD31AED1800270097009FAF420BDA221C301C01991A320123089FB8470130DCD0009F0137EFE70020FEBDF0B50D1C8BB04335069205900793049584
:401180000B7E0C1C109A6E2B00D1A7E011D8632B22D009D8002B00D1B0E0582B00D0C0E045310B707B4D4EE0642B1CD0692B1AD0B7E0732B00D1A5E009D86F2B29D0702BA0
:4011C00000D0AEE00E68202333430B6036E0752B1FD0782B32D0A4E013680D1C191D423511601B689FE0216813680E0603D5191D11601E6805E04806F9D5191D116000217F
:401200005E5E644B002E3BDA049D2D2276422A7036E0216813680E0603D5191D11601E6804E04806F9D5191D1E881160594B227E039308276F2A1ED00A271CE0231C7821A9
:401240004533554D197011682368081D039510601E0601D50E6802E05806FBD50E88D90702D52022134323601027002E03D1226820239A432260231C002243331A7001E00B
:4012800003930A276368A360002B03DB2568042295432560002E02D1049D002B0ED0049D301C391CFFF734FD0398013D435C301C2B70391CFFF7E8FC061EF1D1082F09D1E7
:4012C0002168C90706D5626823699A4202DC013D30232B70049E731B23612AE0086813684969050604D5181D10601B68196005E04606F8D5181D10601B6819800023236138
:40130000049D16E01368191D11601D68281C00F03DF963682061984200D923612069606004E0251C42352B7001232361049E00233370079E05980096211C09AA069BFFF793
:40134000A3FE013002D10120404221E02A1C059806992369079DA8470130F4D02668B60705D4099BE068984212DA181C10E00025E0680999431A9D42F3DA221C0598069902
:4013800019320123079EB0470130DCD00135EFE70BB0F0BDEB180000FC180000C9B28218904204D003788B4202D00130F8E70020704770B5814201D300230CE08C18A042AD
:4013C000FAD28518131C013B0BD351426618F65C6918CE54F7E7934203D0CC5CC4540133F9E770BD30B5002940D004390B68002B00DAC9181E4A1368141C002B02D14B60BE
:40140000116033E099420FD208680A189A4205D113685268C01808604A6000E04B60216024E08A4203D8131C5A68002AF9D11D685C198C420BD1096869185818196090421C
:4014400014D114685268091919605A600EE08C4202D90C23036009E008680C18944203D114685268001908604A60596030BDC0468C01002070B50323CD1C9D430835061C7F
:401480000C2D01D20C2501E0002D3FDB8D423DD3204B1C681A1C211C002913D00868431B0DD40B2B02D90B60CC181EE08C4202D1636813601AE0486860600C1C16E00C1CDE
:4014C0004968E9E7144C2068002803D1301C00F04BF82060301C291C00F046F8431C15D0C41C03239C4384420AD12560201C0B300722231D9043C31A0BD05A42E25008E059
:40150000211A301C00F030F80130EED10C233360002070BD8C01002088010020F8B5061C0C1C151C002904D1111CFFF7A3FF041C18E0002A03D1FFF755FF2C1C12E000F042
:401540002CF8A8420ED2301C291CFFF793FF071E07D0211C2A1CFFF713FC301C211CFFF741FF3C1C201CF8BD38B5074C0023051C081C2360FFF75AF9431C03D12368002B7B
:4015800000D02B6038BDC046900100200023C25C0133002AFBD1581E704704390B68181F002B02DAC8581B18181F7047000000005B324A005B48000053797374656D2069D5
:4015C0006E697469616C697A65642E2E0A0D00000100000067657454656D705F44535028292063616C6C65642C2072657475726E732025640A0D000067657448756D5F442C
:40160000535028292063616C6C65642C2072657475726E732025640A0D000000676574536F696C48756D5F44535028292063616C6C65642C20696E646578203D2025642C5F
:401640002072657475726E732025640A0D0000006765744C696768745F44535028292063616C6C65642C2072657475726E732025640A0D0061766754656D702063616C6C74
:4016800065640A0D0000000061766748756D2063616C6C65640A0D00617667536F696C48756D28292063616C6C65642C20696E646578203D202025640A0D00006176674C46
:4016C000696768742063616C6C65640A0D000000696E70757454656D7028292063616C6C65642C2072657475726E73202564207669612074656D700A0D000000696E7075F5
:401700007448756D28292063616C6C65642C2072657475726E73202564207669612068756D0A0D00696E707574536F696C48756D28292063616C6C65642C20696E64657821
:401740002025642C2072657475726E732025642076696120736F696C48756D0A0D000000696E70757448756D28292063616C6C65642C2072657475726E7320256420766909
:4017800061206C696768740A0D0000000100000061646A7573744865617428292063616C6C65642C2061646A206865617420746F2025642C207265743A2025640A0D00001B
:4017C00061646A75737456656E74696C6174696F6E28292063616C6C65642C2061646A2076656E7420746F2025642C207265743A2025640A0D00000061646A757374497220
:401800007269676174696F6E28292063616C6C65642C2061646A20696E64657820256420746F2025642C207265743A2025640A0D000000006765744163747561746F725306
:40184000746174757328292063616C6C65642C2073657474696E6720616C6C20746F207265743A2025640A0D000000002E050000780500007805000078050000780500002F
:4018800070050000780500003C05000078050000780500004E0500002005000078050000780500007805000078050000780500007805000078050000120500007805000084
:4018C00068050000600500000400000000300F40000400400F4000044300232D302B2000686C4C006566674546470030313233343536373839414243444546003031323362
:4019000034353637383961626364656600000000F8B5C046F8BC08BC9E467047E502000015090000F8B5C046F8BC08BC9E467047BD02000048190000C800002080000000F2
:4019400050000000000000000000000098010020C0F1FF0F00366E01C05D0000180000000000E02E00000000000000000000000000000000000000000000000000000000B7
:4019800000000000D8180000000000000000000000000000000000000000000000000000000000000000000000000000000000000000000000000000000000000000000037
:4019C00000000000E40000200000000000000000000000000000000000000000000000000000000000000000000000000000000000000000000000000000000000000000E3
:401A000000000000000000000000000000000000000000000000000000000000000000000000000000000000000000000000000000000000000000000000000000000000A6
:401A40000000000000000000000000000000000000000000000000000000000000000000000000000000000000000000000000000000000000000000000000000000000066
:401A80000000000000000000000000000000000000000000000000000000000000000000000000000000000000000000000000000000000000000000000000000000000026
:401AC00000000000000000000000000000000000000000000000000000000000000000000000000000000000000000000000000000000000000000000000000000000000E6
:0200000490303A
:020000006E365A
:0200000490402A
:200000000000000000000000000000000000000000000000000000000000000000000000E0
:0200000490501A
:0C000000000204C81193110104D07FC954
:0200000490600A
:0100000001FE
:00000001FF