:400000000010002011000000690300006903000080B500AF00F0ACF980B584B000AF021CFB1D1A70204A3B1C0B3312781A701F4A3B1C0A3312781A700423013BFB6018E07C
:400040001B4B1868391C0B31FA68131C5B009B18C3185B780B70164B1868391C0A31FA68131C5B009B18C3189B780B70FB68013BFB60FB68002B0ADB0D4B1968FA68131CF1
:400080005B009B185B5CFA1D12789A42D8D9094B3A1C0B3212781A60074B3A1C0A3212781A60BD4604B080BDCCF1FF0FCDF1FF0FCC0000201CFF0B4020FF0B4080B500AF4F
:4000C0001C4B1C4A12688021C9020A431A601820FFF7A2FF184B19221A60052000F0B0FA164B174A1278D2B21A60052000F06CFB104B104A1168134A0A401A60124B134A11
:400100001A60134B10221A60124B30221A60124B20221A60114B802212061A60104B114A1A60114B114A1A60114B124A1A60BD4680BDC04600010B402CFF0B4028FF0B405C
:40014000E5F1FF0FFFFFFBFF04010B4006000080080202400C0202402002024008010B40000002400E000080400002402700008080000240CF00008080B582B000AF72B631
:40018000FB1D00221A7023E0FB1D1A78131C5B009B185B00394A9B183B603B681A78597809020A43997809040A43DB781B0613431A1C3B6819795B791B020B439BB2101CAF
:4001C000191C00F053F9FB1D1A78FB1D01321A70FB1D1B78012BD7D9294B992212041A60284BEE2212021A60274BEE221A60274B20221A60264BC42292021A60254B202277
:400200001A60254BC02252031A60244BD82212011A60234B03221A60224B24221A60224B992212041A60214B992212041A60204B992212041A601F4B1E4A1278D2B20221CB
:400240000A43D2B21A701C4B1B4A1278D2B23C218A43D2B214210A43D2B21A70154B154A1278D2B216210A43D2B21A70FFF726FF00F00CF9BD4602B080BDC046880D00000F
:40028000000001400C000140100001400000044008000440180004400801044008030440000404400804044000500F4010500F4030500F4000700F4001700F4010B5064C8C
:4002C0002378002B07D1054B002B02D0044800E000BF0123237010BDE000002000000000640D000008B5084B002B03D00748084900E000BF07480368002B03D0064B002BB2
:4003000000D0984708BDC04600000000640D0000E4000020C80000200000000080B500AF00F00EF800F010F800F016F800F018F862B6024B181C00F0ADF8FEE7680D00008E
:4003400080B500AFBD4680BD80B500AF00F0D2F800F05EF9BD4680BD80B500AFBD4680BD80B500AFBD4680BD80B500AFFEE7C04680B586B000AF224B7B61224B3B61204B46
:400380007B6135E03B691B68FB603B695B68BB603B699B683B6000237B600CE0FB681A68BB681A60BB680433BB60FB680433FB607B6804337B607A683B689A42EED13B6977
:4003C000DB683B6000237B6008E0BB6800221A60BB680433BB607B6804337B607A683B689A42F2D13B6910333B617B69013B7B617B69002BC6D100F087FCFFF78FFFFEE7EB
:4004000001000000B80D000080B582B000AF00237B600FE07B68032B04D8104B7A689200D35800E00E4B0F4A796889008B507B6801337B607B682F2BECD9FFF79DFE0A4B5B
:4004400000221A608023DB058022D205126801210A431A60BD4602B080BDC046000000006903000000000020C000002080B582B000AF786039607A683B68101C00211A1C8E
:4004800000F068FCBD4602B080BDC04680B500AFBD4680BD80B584B000AF78600023FB6009E07A68FB68D3181B78181C00F0A0F9FB680133FB607A68FB68D3181B78002B15
:4004C000EFD1BD4604B080BD80B500AF00F02CF8BD4680BD80B500AF054B054A1268802109060A431A6000F017F8BD4680BDC0460000064080B500AF064B1B78002B04D149
:40050000FFF7E2FF034B01221A70FFF7E3FFBD4680BDC046FC00002080B500AF0A2000F01DF9BD4680BDC04680B500AF234B234A12680C210A431A60214B00221A60214BB4
:40054000214A1A60214B224A1A60224B00221A60214B00221A60214B1D4A1A60204B00221A600A2000F010F90A20032100F0A2F81C4B0A20191C00F077F81B4B00221A60BD
:400580001A4B00221A601A4B00221A60194B1422FF321A60184B00221A60184B00221A60174B10221A70174B00221A80164B00221A60164B00221A60BD4680BD70000640CA
:4005C0000000064060000640770800800003064007010080040306401003064000020640040206401D080000C80E0640880E0640480F0640080F0640C80F0640880F0640F4
:400600000401002014010020240100200C01002080B582B000AF0A2000F0B6F8074B1B889BB27B60054B00221A800A2000F096F87B68181CBD4602B080BDC04614010020FB
:400640000230800804D0C0460138FDD1C046C046C0467047EFF3108072B6704780F310887047C046C046C04680B584B000AF021C3960FB1D1A7080239B05FB60FB1D1B7837
:400680001F2B02D9002000F095F8FB1D1B7810339B00FA68D3181B68BB60FB1D1B7810339B00FA68D3183A681A60BB68181CBD4604B080BD90B587B000AF0A1CFB1D011C41
:4006C0001970BB1D1A70BB1D1B78032B02D9002000F070F8FB1D1B781F2B02D9002000F069F8FB1D1A7803231340DB0006337B613C1C1334FFF7AEFF031C2370FB1D1B7830
:400700009B08DBB29B0014495B181B68FB607B690322111C99400B1CDA43FB681340FB60BB1D1A787B69111C99400B1CFA681343FB60FB1D1B789B08DBB29B00064A9B18D5
:40074000FA681A603B1C13331B78181CFFF786FFBD4607B090BDC04600E400E080B582B000AF021CFB1D1A70064BFA1D11781F220A400121081C9040021C1A60BD4602B038
:4007800080BDC04600E100E080B582B000AF021CFB1D1A70064BFA1D11781F220A400121081C9040021C1A60BD4602B080BDC04680E100E080B582B000AF021CFB1D1A7026
:4007C00001BEBD4602B080BD80B582B000AF021CBB1D1A80BB1D1B88044A12785343181CFFF72EFFBD4602B080BDC046D800002080B582B000AF7860C046064B1A680F2379
:400800001340082BF9D0044B7A681A60BD4602B080BDC046080207404002074080B582B000AF00233B60C34B1B68002B02D0C14B1B689847C04B1A680123134002D0BF4B3C
:4008400000221A60BE4B1B78DAB220231340DBB2002B3CD0BB4B1A6880235B0013400AD0B94B1B889BB2C022920013439AB2B64B1A8001233B60B34B1A68012313400AD072
:40088000B14B1B889BB29022920013439AB2AE4B1A8001233B603B68002B18D0A84B1B78DAB201231340DBB2002B01D0012300E00223A54A128892B291B21A1C0B1C134360
:4008C0009BB29AB2A04B1A809D4B00221A709C4B1B78DAB220231340DBB2002B00D1ACE1984B1A68102313401CD0984B10221A60934B1B78DAB201231340DBB2002B01D031
:40090000012300E00223904A128892B291B21A1C0B1C13439BB29AB28B4B1A80884B10221A70C0E1864B1B78DAB208231340DBB2002B29D0834B1A68022313400ED0834B14
:4009400002221A60804B1B889BB28822920013439AB27D4B1A8001233B6015E0784B1B78DAB201231340DBB2002B03D0744B25221A7009E0724B24221A70754B1B68002BD2
:4009800002D0744B10221A606D4B1B78DAB204231340DBB2002B00D113E1694B1B78DAB201231340DBB2002B5CD06B4B1A680823134034D0694B1A68694B19680F2319404E
:4009C000684B1B68CB18D31A7B607B68082B02D908237B600DE07B68002B0AD1624B624A1168624A0A401A6008237B6001233B6011E010E05E4B1A685A4B1B68D2185D4B7C
:400A00001B68DBB21370574B1B685A1C554B1A607B68013B7B607B68002BEBD11EE04E4B1A680423134019D0514B1A684D4B1B68D218504B1B68DBB213704A4B1B685A1C4F
:400A4000484B1A60474B1A68444B1B689A4203D2494B04221A6001E001233B60474B484A1A60AEE0374B1A680223134032D0374B02221A60434B1A68434B19680F2319404A
:400A8000414B186880231B02034001D0012300E00023CB18D21A3B4B1A603A4B1A683B4B1A60294B1B889BB28422920013439AB2254B1A80364B364A1268802149020A435D
:400AC0001A60334B324A1168324A0A401A6001233B6076E0304B1A681023134066D015E0284B1A681A4B1B689A420ED22B4B2C4A1168244A12688A181278D2B21A60214B8A
:400B00001B685A1C1F4B1A6000E005E01E4B1A680F231340082BE3D11A4B1A680C4B1B689A4202D10B4B40221A601E4B1E4A1A6047E0C046000100208C0E0640880E0640C5
:400B4000040100200C0F064014010020000F064010010020880F0640CC0F064020010020080306402401002060000640FFFEFFFF180100204003064068000640C00F064039
:400B8000ED0F000008010020080206400C01002004020640FFFFFEFF8C0F06404002064028010020800F0640F30700003F4B1A684023134005D03E4B1A683E4B1A60012302
:400BC0003B603B68002B6ED03B4B3B4A11683B4A0A401A603A4B00221A603A4B00221A60394B1B78DAB202231340DBB2002B19D0364B1B78DAB201231340DBB2002B01D0E3
:400C0000092300E00A23324A128892B291B21A1C0B1C13439BB29AB22D4B1A802B4B60221A7040E02B4B2C4A116820220A4001D0182200E010221A6035E0244B1B78DAB2B3
:400C400010231340DBB2002B2DD1244B234A1268520052081A601D4B10221A70164B164A11681F4A0A401A60134B134A11681D4A0A401A60124B00221A60124B00221A60E0
:400C8000194B1A4A1A601A4B1A4A1A601A4B1B4A1A601B4B1B4A1A60104B104A1268802109060A431A60BD4602B080BD8C0F0640080100200C01002060000640FFFEFFFFB6
:400CC000C80F0640880F06401C0100200401002014010020680006406400064000000640FF5FFFFFFFFCFFFF800F0640ED0F0000C00F0640F3070000400F0640FF0F0000ED
:400D0000000F06401703000070B50E4B0E4D0024ED1AAD101E1CAC4204D0A300F35898470134F8E700F036F8084B094D0024ED1AAD101E1CAC4204D0A300F35898470134F9
:400D4000F8E770BDA00D0000A00D0000A00D0000A80D0000031C8218934202D019700133FAE770470000000054686520554152542069732066756E6374696F6E616C2E0AF2
:400D80000D0000000400000000300F40000400400F400004F8B5C046F8BC08BC9E467047E502000009040000F8B5C046F8BC08BC9E467047BD020000C80D0000C800002010
:400DC000180000005000000000000000C0F1FF0F00366E01C05D0000180000000000E02E0000000000000000000000000000000000000000000000000000000000000000E4
:400E000000000000000000000000000000000000000000000000000000000000000000000000000000000000000000000000000000000000000000000000000000000000B2
:400E40000000000000000000000000000000000000000000000000000000000000000000000000000000000000000000000000000000000000000000000000000000000072
:400E80000000000000000000000000000000000000000000000000000000000000000000000000000000000000000000000000000000000000000000000000000000000032
:400EC00000000000000000000000000000000000000000000000000000000000000000000000000000000000000000000000000000000000000000000000000000000000F2
:0200000490303A
:020000005B9A09
:0200000490402A
:200000000000000000000000000000000000000000000000000000000000000000000000E0
:0200000490501A
:0C000000000204C81193110104CC6D2D06
:0200000490600A
:0100000001FE
:00000001FF