:400000000010002011000000850800008508000080B500AF00F062FC80B584B000AF021CFB1D1A70204A3B1C0B3312781A701F4A3B1C0A3312781A700423013BFB6018E081
:400040001B4B1868391C0B31FA68131C5B009B18C3185B780B70164B1868391C0A31FA68131C5B009B18C3189B780B70FB68013BFB60FB68002B0ADB0D4B1968FA68131CF1
:400080005B009B185B5CFA1D12789A42D8D9094B3A1C0B3212781A60074B3A1C0A3212781A60BD4604B080BDCCF1FF0FCDF1FF0FD00000201CFF0B4020FF0B4080B500AF4B
:4000C0001C4B1C4A12688021C9020A431A601820FFF7A2FF184B19221A60052000F0DCFD164B174A1278D2B21A60052000F0E8FD104B104A1168134A0A401A60124B134A64
:400100001A60134B10221A60124B30221A60124B20221A60114B802212061A60104B114A1A60114B114A1A60114B124A1A60BD4680BDC04600010B402CFF0B4028FF0B405C
:40014000E5F1FF0FFFFFFBFF04010B4006000080080202400C0202402002024008010B40000002400E000080400002402700008080000240CF00008080B582B000AF72B631
:40018000FB1D00221A7023E0FB1D1A78131C5B009B185B00394A9B183B603B681A78597809020A43997809040A43DB781B0613431A1C3B6819795B791B020B439BB2101CAF
:4001C000191C00F009FCFB1D1A78FB1D01321A70FB1D1B78012BD7D9294B992212041A60284BEE2212021A60274BEE221A60274B20221A60264BC42292021A60254B2022BE
:400200001A60254BC02252031A60244BD82212011A60234B03221A60224B24221A60224B992212041A60214B992212041A60204B992212041A601F4B1E4A1278D2B20221CB
:400240000A43D2B21A701C4B1B4A1278D2B23C218A43D2B214210A43D2B21A70154B154A1278D2B216210A43D2B21A70FFF726FF00F0C2FBBD4602B080BDC046E0190000F3
:40028000000001400C000140100001400000044008000440180004400801044008030440000404400804044000500F4010500F4030500F4000700F4001700F4010B5064C8C
:4002C0002378002B07D1054B002B02D0044800E000BF0123237010BD48010020000000000C16000008B5084B002B03D00748084900E000BF07480368002B03D0064B002B98
:4003000000D0984708BDC046000000000C1600004C010020C80000200000000080B500AF00F020F800F074F800F0EEF800F0C2F962B61B2000F0B0FB074B181C00F038FC6B
:400340001B2000F0A9FB054B181C00F031FC044B181C00F02DFCFEE710160000141600001816000080B500AFBD4680BD80B58EB000AF0B4B1B78391D0A4A081C111C1A1CAE
:4003800000F040FD3B1D181C00F012FC044B1B785A1CD1B2024A1170181CBD460EB080BD640100203016000080B58EB000AF094B1B78391D084A081C111C1A1C00F022FD9A
:4003C0003B1D181C00F0F4FB024B1B78181CBD460EB080BD640100205416000080B58EB000AF094B1B78391D084A081C111C1A1C00F008FD3B1D181C00F0DAFB024B1B7833
:40040000181CBD460EB080BD64010020AC16000080B500AFBD4680BD80B592B000AF021CFB1D1A70FB1D1A780123381C0C30074900F0E8FC3B1C0C33181C00F0B9FB012325
:40044000DBB25BB2181CBD4612B080BDEC17000080B592B000AF021CFB1D1A70FB1D1A780123381C0C30074900F0CCFC3B1C0C33181C00F09DFB0123DBB25BB2181CBD4616
:4004800012B080BD2018000080B592B000AF021CFB1D1A70FB1D1A780123381C0C30074900F0B0FC3B1C0C33181C00F081FB0123DBB25BB2181CBD4612B080BD5018000043
:4004C00090B595B002AF0A1CFB1D011C1970BB1D1A70FB1D1A78BB1D1B7801210C1C381C0C300849009400F08DFC3B1C0C33181C00F05EFB0123DBB25BB2181CBD4613B063
:4005000090BDC0468818000080B500AF024B181C00F068FBBD4680BD1D05000090B583B000AFFC1D00F0A4F9031C23705C4B1B78DBB2002B3ED1FB1D1B78413B162B37D8B7
:400540009A00584BD3181B689F46FFF70FFF031C181C00F0B5F82CE0FFF740FF031C181C00F0EEF825E0FFF71FFF031C181C00F0C7F81EE00720FFF76BFF031C181C482131
:4005800000F0FEF815E00020FFF762FF031C181C4B2100F0F5F80CE0414B01221A7008E03F4B03221A7004E03D4B04221A7000E0C0466DE03A4B1B78DBB2012B16D1FB1DE8
:4005C0001B78312B07D1FF20FFF726FF031C181C00F0FAF806E00020FFF71EFF031C181C00F0F2F82E4B00221A7051E02C4B1B78DBB2032B16D1FB1D1B78312B07D1FF207F
:40060000FFF742FF031C181C00F0FAF806E00020FFF73AFF031C181C00F0F2F8204B00221A7035E01E4B1B78DBB2042B30D11E4B1B78DBB2002B04D1FB1D1A781A4B1A70E5
:4006400026E0FB1D1B78312B0ED1174B1B78DBB2DBB2313BDBB2181CFF21FFF731FF031C181C00F0E9F80DE00F4B1B78DBB2DBB2313BDBB2181C0021FFF722FF031C181C3C
:4006800000F0DAF8084B00221A70054B00221A70064B074A12681A60BD4603B090BDC046800100208019000081010020C00F0740CC0F074080B500AF00F0B8F9BD4680BD05
:4006C00080B582B000AF021CFB1D1A70FB1D1B78002B09D0542000F0DFF9FB1D1B78181C00F0DAF9002306E0582000F0D5F9542000F0D2F9FF235BB2181CBD4602B080BDD4
:4007000080B582B000AF021CFB1D1A70FB1D1B78002B09D0412000F0BFF9FB1D1B78181C00F0BAF9002306E0582000F0B5F9412000F0B2F9FF235BB2181CBD4602B080BD39
:4007400080B582B000AF021CFB1D1A70FB1D1B78002B09D04C2000F09FF9FB1D1B78181C00F09AF9002306E0582000F095F94C2000F092F9FF235BB2181CBD4602B080BD63
:4007800080B582B000AF0A1CFB1D011C1970BB1D1A70FB1D1B785BB2002B06D1BB1D1B78181C00F079F9002308E0582000F074F9BB1D1B78181C00F06FF9FF235BB2181CE8
:4007C000BD4602B080BDC04680B582B000AF021CFB1D1A70FB1D1B785BB2002B04D1572000F05AF9002306E0582000F055F9572000F052F9FF235BB2181CBD4602B080BDF3
:4008000080B582B000AF021CFB1D1A70FB1D1B785BB2002B04D1562000F03EF9002306E0582000F039F9562000F036F9FF235BB2181CBD4602B080BD80B582B000AF021CCC
:40084000FB1D1A70FB1D1B785BB2002B04D1462000F022F9002306E0582000F01DF9462000F01AF9FF235BB2181CBD4602B080BD80B500AF00F07AF9031CDBB2181CBD463E
:4008800080BDC04680B500AFFEE7C04680B584B000AF78600F4B1A687B68D3181A1C0E4BD31A802B09DC0B4B1B68FB60094B1A687B68D218074B1A6007E000F065FA031C88
:4008C0000C221A6001235B42FB60FB68181CBD4604B080BDCC0000209801002080B586B000AF224B7B61224B3B61204B7B6135E03B691B68FB603B695B68BB603B699B6891
:400900003B6000237B600CE0FB681A68BB681A60BB680433BB60FB680433FB607B6804337B607A683B689A42EED13B69DB683B6000237B6008E0BB6800221A60BB680433B0
:40094000BB607B6804337B607A683B689A42F2D13B6910333B617B69013B7B617B69002BC6D100F017FAFFF7D9FCFEE701000000481A000080B582B000AF00237B600FE007
:400980007B68032B04D8104B7A689200D35800E00E4B0F4A796889008B507B6801337B607B682F2BECD9FFF7E7FB0A4B00221A608023DB058022D205126801210A431A605D
:4009C000BD4602B080BDC046000000008508000000000020C000002080B582B000AF786039607A683B68101C00211A1C00F001FABD4602B080BDC04680B500AFBD4680BDDC
:400A000080B500AF00F05EF8BD4680BD80B500AF054B054A1268802109060A431A6000F017F8BD4680BDC0460000074080B500AF064B1B78002B04D1FFF7E2FF034B01223C
:400A40001A70FFF7E3FFBD4680BDC0468401002080B500AFBD4680BD80B582B000AF00237B60044B1B687B607B68181CBD4602B080BDC0464003074080B582B000AF054B45
:400A80001A680F2313407B607B68181CBD4602B080BDC0460803074080B582B000AF7860C046064B1A680F231340082BF9D0044B7A681A60BD4602B080BDC04608020740B7
:400AC0004002074080B500AF174B184A1A60184B00221A60174B01221A60174B174A1A60174B07221A60174B00221A60164B01221A60164B114A1A60154B00221A60154B7D
:400B000000221A60144B00221A60144B00221A60134B00221A60134B04221A60124B00221A60BD4680BDC046000007400B00000240000740480007400003074007000080B1
:400B40000403074010030740440007400002074004020740880E0740C80E0740480F0740080F0740C80F0740880F074080B582B000AF00237B60FFF77FFF031C002B03D015
:400B8000FFF76AFF031C7B60084B1A68D8239B00134005D000237B60044BD82292001A607B68181CBD4602B080BDC046C00F074080B584B000AF78600023FB6009E07A6898
:400BC000FB68D3181B78181CFFF766FFFB680133FB607A68FB68D3181B78002BEFD1BD4604B080BD80B582B000AF786000F048F87B68181C00F008F8032000F011F800F0C0
:400C000035F8BD4602B080BD80B582B000AF7860024B7A68DA66BD4602B080BD0000002090B585B000AF021CFB1D1A701E23FB603C1C0B3400F03AF8031C23700A4B0A4A8D
:400C4000126892009108FA1D1078FA68041C9440221C0A431A603B1C0B331B78181C00F029F8BD4605B090BD08E400E080B500AF024B802212011A60BD4680BD00E100E036
:400C800080B500AF024B802212011A60BD4680BD80E100E0000000000230800804D0C0460138FDD1C046C046C0467047EFF3108072B6704780F310887047C046C046C046CA
:400CC00080B582B000AF021CBB1D1A80BB1D1B88044A12785343181CFFF7DEFFBD4602B080BDC046DC000020002934D00123002210B488422CD301242407A14204D281429E
:400D000002D209011B01F8E7E400A14204D2814202D249005B00F8E7884201D3401A1A434C08A04202D3001B5C0822438C08A04202D3001B9C082243CC08A04202D3001BCA
:400D4000DC082243002803D01B0901D00909E3E7101C10BC7047002801D00020C04307B4024802A14018029003BDC046190000000029F0D003B5FFF7B9FF0EBC4243891AE1
:400D80001847C0467047C046014B18687047C0464401002070B50E4B0E4D0024ED1AAD101E1CAC4204D0A300F35898470134F8E700F038FE084B094D0024ED1AAD101E1C94
:400DC000AC4204D0A300F35898470134F8E770BD301A0000301A0000301A0000381A000010B50023934203D0CC5CC4540133F9E710BD031C8218934202D019700133FAE744
:400E0000704700000EB400B59CB01DAB04CB822202A992008A810A4A02908A604A6101225242CA81074A086110681D9A019300F06BF8029A002313701CB008BC03B0184784
:400E4000FFFFFF7F44010020F0B58D6885B0071C0C1C03920193AB4245D390228B89D20013423DD062690326564309692068F20F401A96190290021C019801321218761092
:400E8000964200D2161C381C5A050FD5311C00F021FB051E13D0029A2169FFF7A1FFA289184B134080221343A38111E0321C00F065FB051E0CD1381C216900F0C3FA0C235E
:400EC0003B60A389402213430120A381404217E0029B2561ED1825606661019DF61AA6600198A84200D2019D2A1C2068039900F090FAA2680020531BA36023685D19256095
:400F000005B0F0BD7FFBFFFFF0B59FB0039005938B890E1C171C19060FD53269002A0CD1402100F0D7FA30603061002803D103990C230B60C9E04023736106AD00236B61AB
:400F400020236B763023AB763C1C2378002B03D1E21B029211D003E0252BF9D00134F4E70398311C3A1C029BFFF76EFF013000D1A6E06969029A8B186B612378002B00D12F
:400F80009EE0012252426A606A4600235B3201342B60EB60AB601370AB654E4F2178381C052200F02BFA002807D0C71B2B680120B840184328600134EFE72B68D90603D59E
:400FC0006A4620215B3211701A0703D56A462B215B32117022782A2A01D0099B0EE0059A111D12680591002A01DB099204E05242EA60022213432B60013409E02278303A37
:40100000092A04D80A214B4301349B18F6E7099323782E2B18D163782A2B09D1059B02341A1D1B680592002B0DDA01235B420AE0013400232278303A092A04D80A214B4398
:4010400001349B18F6E70793234F2178381C032200F0D4F9002806D0C71B2B684020B84018432860013421781C480622671C297600F0C4F9002812D0194B002B06D1059BE9
:401080000722073393430833059314E005AB00930398291C321C134B00E000BF07E005AB00930398291C321C0E4B00F091F804900499013104D06A69049953186B6143E790
:4010C000B3895A0601D40B9801E0012040421FB0F0BDC046EE190000F4190000F819000000000000490E0000F7B5151C01930A698B68061C0C1C934200DA131C221C2B6092
:4011000043321278002A01D001332B602068800602D52B6802332B60216806270F401FD0231C43331B785A1E9341226892061FD5E11840313020C870211C5A1C4531097884
:40114000A21840320233D17012E0221C301C019919320123089FB847013011D0009F01370097E0682968009F431A9F42EDDBD7E7221C301C01994332089FB847013002D1A3
:401180000120404223E0206806212B68E26801400025042903D1D51AEB43DB171D40A26823699A4201DDD31AED1800270097009FAF420BDA221C301C01991A320123089F7A
:4011C000B8470130DCD0009F0137EFE70020FEBDF0B50D1C8BB0433506920590079304950B7E0C1C109A6E2B00D1A7E011D8632B22D009D8002B00D1B0E0582B00D0C0E095
:4012000045310B707B4D4EE0642B1CD0692B1AD0B7E0732B00D1A5E009D86F2B29D0702B00D0AEE00E68202333430B6036E0752B1FD0782B32D0A4E013680D1C191D42351D
:4012400011601B689FE0216813680E0603D5191D11601E6805E04806F9D5191D116000215E5E644B002E3BDA049D2D2276422A7036E0216813680E0603D5191D11601E68F2
:4012800004E04806F9D5191D1E881160594B227E039308276F2A1ED00A271CE0231C78214533554D197011682368081D039510601E0601D50E6802E05806FBD50E88D90782
:4012C00002D52022134323601027002E03D1226820239A432260231C002243331A7001E003930A276368A360002B03DB2568042295432560002E02D1049D002B0ED0049D5B
:40130000301C391CFFF734FD0398013D435C301C2B70391CFFF7E8FC061EF1D1082F09D12168C90706D5626823699A4202DC013D30232B70049E731B23612AE00868136847
:401340004969050604D5181D10601B68196005E04606F8D5181D10601B68198000232361049D16E01368191D11601D68281C00F03DF963682061984200D92361206960605C
:4013800004E0251C42352B7001232361049E00233370079E05980096211C09AA069BFFF7A3FE013002D10120404221E02A1C059806992369079DA8470130F4D02668B6075D
:4013C00005D4099BE068984212DA181C10E00025E0680999431A9D42F3DA221C0598069919320123079EB0470130DCD00135EFE70BB0F0BDFF190000101A0000C9B28218F9
:40140000904204D003788B4202D00130F8E70020704770B5814201D300230CE08C18A042FAD28518131C013B0BD351426618F65C6918CE54F7E7934203D0CC5CC454013302
:40144000F9E770BD30B5002940D004390B68002B00DAC9181E4A1368141C002B02D14B60116033E099420FD208680A189A4205D113685268C01808604A6000E04B60216040
:4014800024E08A4203D8131C5A68002AF9D11D685C198C420BD10968691858181960904214D114685268091919605A600EE08C4202D90C23036009E008680C18944203D18B
:4014C00014685268001908604A60596030BDC0469001002070B50323CD1C9D430835061C0C2D01D20C2501E0002D3FDB8D423DD3204B1C681A1C211C002913D00868431B3B
:401500000DD40B2B02D90B60CC181EE08C4202D1636813601AE0486860600C1C16E00C1C4968E9E7144C2068002803D1301C00F04BF82060301C291C00F046F8431C15D076
:40154000C41C03239C4384420AD12560201C0B300722231D9043C31A0BD05A42E25008E0211A301C00F030F80130EED10C233360002070BD900100208C010020F8B5061C74
:401580000C1C151C002904D1111CFFF7A3FF041C18E0002A03D1FFF755FF2C1C12E000F02CF8A8420ED2301C291CFFF793FF071E07D0211C2A1CFFF713FC301C211CFFF77B
:4015C00041FF3C1C201CF8BD38B5074C0023051C081C2360FFF75AF9431C03D12368002B00D02B6038BDC046940100200023C25C0133002AFBD1581E704704390B68181F7B
:40160000002B02DAC8581B18181F7047000000005B324A005B48000053797374656D20696E697469616C697A65642E2E0A0D000067657454656D705F4453502829206361E9
:401640006C6C65642C2072657475726E732025640A0D000067657448756D5F44535028292063616C6C65642C2072657475726E732025640A0D000000676574536F696C48E6
:40168000756D5F44535028292063616C6C65642C20696E646578203D2025642C2072657475726E732025640A0D0000006765744C696768745F44535028292063616C6C65B3
:4016C000642C2072657475726E732025640A0D0061766754656D702063616C6C65640A0D0000000061766748756D2063616C6C65640A0D00617667536F696C48756D2829A3
:401700002063616C6C65642C20696E646578203D202025640A0D00006176674C696768742063616C6C65640A0D000000696E70757454656D7028292063616C6C65642C20C9
:4017400072657475726E73202564207669612074656D700A0D000000696E70757448756D28292063616C6C65642C2072657475726E73202564207669612068756D0A0D0047
:40178000696E707574536F696C48756D28292063616C6C65642C20696E6465782025642C2072657475726E732025642076696120736F696C48756D0A0D000000696E707519
:4017C0007448756D28292063616C6C65642C2072657475726E7320256420766961206C696768740A0D0000000100000061646A75737457696E646F7728292063616C6C6548
:40180000642C2061646A2077696E646F7720746F2025642C207265743A2025640A0D000061646A7573744865617428292063616C6C65642C2061646A206865617420746FB1
:401840002025642C207265743A2025640A0D000061646A75737456656E74696C6174696F6E28292063616C6C65642C2061646A2076656E7420746F2025642C207265743A6B
:401880002025640A0D00000061646A75737449727269676174696F6E28292063616C6C65642C2061646A20696E64657820256420746F2025642C207265743A2025640A0D56
:4018C000000000006765744163747561746F7253746174757328292063616C6C65642C2073657474696E6720616C6C20746F207265743A2025640A0D00000000676574546C
:40190000656D70416E6448756D28292063616C6C65642C2073657474696E6720616C6C20746F207265743A2025640A0D000000006765744C6967687428292063616C6C659D
:40194000642C207265743A2025640A0D00000000676574536F696C48756D28292063616C6C65642C20696E64657820256420746F2025642C207265743A2025640A0D000051
:4019800066050000B0050000B0050000B0050000B0050000A8050000B005000074050000B0050000B00500008605000058050000B0050000B0050000B0050000B0050000E7
:4019C000B0050000B0050000B00500004A050000B0050000A0050000980500000400000000300F40000400400F4000044300232D302B2000686C4C00656667454647003006
:401A0000313233343536373839414243444546003031323334353637383961626364656600000000F8B5C046F8BC08BC9E467047E502000075090000F8B5C046F8BC08BC7C
:401A40009E467047BD020000581A0000C800002080000000500000000000000098010020C0F1FF0F00366E01C05D0000180000000000E02E00000000000000000000000082
:401A80000000000000000000000000000000000000000000EC1900000000000000000000000000000000000000000000000000000000000000000000000000000000000021
:401AC0000000000000000000000000000000000000000000E400002000000000000000000000000000000000000000000000000000000000000000000000000000000000E2
:401B000000000000000000000000000000000000000000000000000000000000000000000000000000000000000000000000000000000000000000000000000000000000A5
:401B40000000000000000000000000000000000000000000000000000000000000000000000000000000000000000000000000000000000000000000000000000000000065
:401B80000000000000000000000000000000000000000000000000000000000000000000000000000000000000000000000000000000000000000000000000000000000025
:401BC00000000000000000000000000000000000000000000000000000000000000000000000000000000000000000000000000000000000000000000000000000000000E5
:0200000490303A
:02000000CD3EF3
:0200000490402A
:200000000000000000000000000000000000000000000000000000000000000000000000E0
:0200000490501A
:0C000000000204C81193110104D0DED1ED
:0200000490600A
:0100000001FE
:00000001FF