:400000000010002011000000710C0000710C000080B500AF00F030FE80B584B000AF021CFB1D1A70204A3B1C0B3312781A701F4A3B1C0A3312781A700423013BFB6018E0D1
:400040001B4B1868391C0B31FA68131C5B009B18C3185B780B70164B1868391C0A31FA68131C5B009B18C3189B780B70FB68013BFB60FB68002B0ADB0D4B1968FA68131CF1
:400080005B009B185B5CFA1D12789A42D8D9094B3A1C0B3212781A60074B3A1C0A3212781A60BD4604B080BDCCF1FF0FCDF1FF0FCC0000201CFF0B4020FF0B4080B500AF4F
:4000C0001C4B1C4A12688021C9020A431A601820FFF7A2FF184B19221A60052001F0E0FA164B174A1278D2B21A60052001F0C0FB104B104A1168134A0A401A60124B134A8B
:400100001A60134B10221A60124B30221A60124B20221A60114B802212061A60104B114A1A60114B114A1A60114B124A1A60BD4680BDC04600010B402CFF0B4028FF0B405C
:40014000E5F1FF0FFFFFFBFF04010B4006000080080202400C0202402002024008010B40000002400E000080400002402700008080000240CF00008080B582B000AF72B631
:40018000FB1D00221A7023E0FB1D1A78131C5B009B185B00394A9B183B603B681A78597809020A43997809040A43DB781B0613431A1C3B6819795B791B020B439BB2101CAF
:4001C000191C00F0D7FDFB1D1A78FB1D01321A70FB1D1B78012BD7D9294B992212041A60284BEE2212021A60274BEE221A60274B20221A60264BC42292021A60254B2022EF
:400200001A60254BD82252031A60244BD82212011A60234B03221A60224B24221A60224B992212041A60214B992212041A60204B992212041A601F4B1E4A1278D2B20221B3
:400240000A43D2B21A701C4B1B4A1278D2B23C218A43D2B214210A43D2B21A70154B154A1278D2B216210A43D2B21A70FFF726FF00F090FDBD4602B080BDC046901E00006E
:40028000000001400C000140100001400000044008000440180004400801044008030440000404400804044000500F4010500F4030500F4000700F4001700F4010B5064C8C
:4002C0002378002B07D1054B002B02D0044800E000BF0123237010BDE0000020000000002C1E000008B5084B002B03D00748084900E000BF07480368002B03D0064B002BD9
:4003000000D0984708BDC046000000002C1E0000E4000020C80000200000000080B500AF00F01CF800F0C0FA00F0C2F800F0D4F9FF2000F0C3FA084B181C01F075FA002041
:4003400000F0BCFA044B181C01F06EFA0020012100F0B2FBFEE7C0468813000080B582B000AFFB1D00221A7034E0FB1D1A78354B920001214942D150FB1D1A78324B920065
:4003800001214942D150BB1D00221A7012E0BB1D1A78FB1D18782D49131C9B009B185B001B185B00012252425A52BB1D1A78BB1D01321A70BB1D1B78052BE8D9FB1D1A78A3
:4003C000234B920001214942D150FB1D1A78FB1D01321A70FB1D1B78092BC6D91D4B194A1A601D4B184A1A607B1D00221A7016E07B1D18787B1D1A78131C9B009B189B0005
:40040000124A9918154B8200D1507B1D1B78144A0021D1547B1D1A787B1D01321A707B1D1B78052BE4D90F4B094A1A600E4B00221A700E4B00221A700D4B00221A70BD460E
:4004400002B080BDE40100200C02002054010020200100201801002010010020CC0100204C0100201C01002048010020140100204901002080B500AF024B1B78181CBD46A0
:4004800080BDC0464801002080B500AF024B1B78181CBD4680BDC0461401002080B500AF024B1B78181CBD4680BDC0464901002080B500AF184B00221A60184B00221A6093
:4004C000174B00221A80164B00225A80144B00229A80134B0022DA80114B00221A81104B00225A810F4B00221A600F4B181C00F0E5FD00F021FD00F08BFC012000F0E0FCD3
:40050000012001F0C9F9094B01221A70084B01221A70BD4680BDC0465002002044020020340200204C02002035050000400200204802002090B583B000AF002001F0ACF921
:40054000FC1D00F0A7F9031C23705E4B1B78DBB2002B3ED1FB1D1B78413B162B37D89A00594BD3181B689F46FFF784FF031C181C00F0B8F82CE0FFF791FF031C181C00F0D4
:40058000F1F825E0FFF780FF031C181C00F0CAF81EE0072000F0E4F9031C181C482100F001F915E0002000F0DBF9031C181C4B2100F0F8F80CE0434B01221A7008E0414B28
:4005C00003221A7004E03F4B04221A7000E0C0466DE03C4B1B78DBB2012B16D1FB1D1B78312B07D1FF2000F069F9031C181C00F0FDF806E0002000F061F9031C181C00F026
:40060000F5F8304B00221A7051E02E4B1B78DBB2032B16D1FB1D1B78312B07D1FF2000F0F1F9031C181C00F0FDF806E0002000F0E9F9031C181C00F0F5F8224B00221A7096
:4006400035E0204B1B78DBB2042B30D11F4B1B78DBB2002B04D1FB1D1A781C4B1A7026E0FB1D1B78312B0ED1184B1B78DBB2DBB2313BDBB2181CFF2100F01EFA031C181CE1
:4006800000F0ECF80DE0114B1B78DBB2DBB2313BDBB2181C002100F00FFA031C181C00F0DDF80A4B00221A70064B00221A70012001F0F2F8064B074A12681A60BD4603B0CB
:4006C00090BDC046FC000020301E0000FD000020C00F0740CC0F074080B500AF00F02CFCBD4680BD80B582B000AF021CFB1D1A70FB1D1B78002B09D0542000F053FCFB1D5C
:400700001B78181C00F04EFC002306E0582000F049FC542000F046FCFF235BB2181CBD4602B080BD80B582B000AF021CFB1D1A70FB1D1B78002B09D0412000F033FCFB1DEA
:400740001B78181C00F02EFC002306E0582000F029FC412000F026FCFF235BB2181CBD4602B080BD80B582B000AF021CFB1D1A70FB1D1B78002B09D04C2000F013FCFB1D32
:400780001B78181C00F00EFC002306E0582000F009FC4C2000F006FCFF235BB2181CBD4602B080BD80B582B000AF0A1CFB1D011C1970BB1D1A70FB1D1B785BB2002B06D139
:4007C000BB1D1B78181C00F0EDFB002308E0582000F0E8FBBB1D1B78181C00F0E3FBFF235BB2181CBD4602B080BDC04680B582B000AF021CFB1D1A70FB1D1B785BB2002BAB
:4008000004D1572000F0CEFB002306E0582000F0C9FB572000F0C6FBFF235BB2181CBD4602B080BD80B582B000AF021CFB1D1A70FB1D1B785BB2002B04D1562000F0B2FB60
:40084000002306E0582000F0ADFB562000F0AAFBFF235BB2181CBD4602B080BD80B582B000AF021CFB1D1A70FB1D1B785BB2002B04D1462000F096FB002306E0582000F019
:4008800091FB462000F08EFBFF235BB2181CBD4602B080BD80B500AF00F0EEFB031CDBB2181CBD4680BDC04680B500AF00F074FC00F046FE62B6BD4680BDC04680B586B054
:4008C00000AF021CFB1D1A703B1C0F330F221A703B1C0E3300221A703B1C173300221A7000233B61FB1D1B780F2B0CD13B1C0F334220191C0122002300F0DCFC021C3B1C70
:4009000017331A700FE0FB1D1B78002B0BD13B1C0E334220191C0122002300F0CBFC021C3B1C17331A703B69181C00210022002300F03CF93B1C17331B78002B09D13B698D
:400940001B78FA1D12789A4201D1002302E0FF2300E0FF235BB2181CBD4606B080BDC04680B586B000AF021CFB1D1A703B1C0F3347221A703B1C0E3340221A703B1C1733A4
:4009800000221A703B1C0D333B61FB1D1B78072B0CD13B1C0F334220191C0122002300F089FC021C3B1C17331A700FE0FB1D1B78002B0BD13B1C0E334220191C0122002354
:4009C00000F078FC021C3B1C17331A703B690020191C0022002300F0E9F83B1C17331B78002B09D13B691B78FA1D12789A4201D1002302E0FF2300E0FF235BB2181CBD460F
:400A000006B080BD80B586B000AF021CFB1D1A703B1C0F3387221A703B1C0E3380221A703B1C173300221A703B1C0D333B61FB1D1B78072B0CD13B1C0F334220191C0122CC
:400A4000002300F037FC021C3B1C17331A7010E0FB1D1B78002B0CD13B1C0E334220191C0122002300F026FC021C3B1C17331A70FFE7C04600F042FD031C022BFAD03B699F
:400A8000002000211A1C002300F090F83B1C17331B78002B09D13B691B78FA1D12789A4201D1002302E0FF2300E0FF235BB2181CBD4606B080BDC04680B584B000AF0A1CC1
:400AC000FB1D011C1970BB1D1A703B1C0933FB603B1C0B3300221A70BB1D1B78012B19D1FB1D1B780122111C99400B1CDAB22E4B1B78DBB21343DBB2DAB22B4B1A702A4B22
:400B00001A783B1C0A331A703B1C0A331A78264B1A7021E0BB1D1B78002B1BD1FB1D1B780122111C99400B1CDBB2DB43DBB21E4A1278D2B21340DBB2DAB21B4B1A701A4BF7
:400B40001A783B1C0A331A703B1C0A331A78164B1A7001E0FF2321E03B1C0A334220191C0122002300F0A6FB021C3B1C0B331A70FB6800200021002200F018F83B1C0B3316
:400B80001B78002B09D1FB681A78074B1B789A4201D1002302E0FF2300E0FF235BB2181CBD4604B080BDC0465402002080B586B000AFF860B9607A603B603B1C1733002278
:400BC0001A703B1C14334220191C0222002300F0FFFB021C3B1C17331A703B1C17331B78002B3FD1FB68002B06D03B1C14331B78DB08DAB2FB681A70BB68002B09D03B1CDE
:400C000014331B781A1C0E2313405B10DAB2BB681A707B68002B18D03B1C14331B781A1C012313400AD03B1C14335B785B09DBB204221343DAB27B681A7006E03B1C143373
:400C40005B785B09DAB27B681A703B68002B07D03B1C14335A783F231340DAB23B681A70002300E0FF235BB2181CBD4606B080BD80B500AFFEE7C04680B586B000AF224B0F
:400C80007B61224B3B61204B7B6135E03B691B68FB603B695B68BB603B699B683B6000237B600CE0FB681A68BB681A60BB680433BB60FB680433FB607B6804337B607A6800
:400CC0003B689A42EED13B69DB683B6000237B6008E0BB6800221A60BB680433BB607B6804337B607A683B689A42F2D13B6910333B617B69013B7B617B69002BC6D101F0EB
:400D000067F8FFF70BFBFEE701000000C01E000080B582B000AF00237B600FE07B68032B04D8104B7A689200D35800E00E4B0F4A796889008B507B6801337B607B682F2BA4
:400D4000ECD9FFF719FA0A4B00221A608023DB058022D205126801210A431A60BD4602B080BDC04600000000710C000000000020C000002080B582B000AF786039607A6877
:400D80003B68101C00211A1C01F048F8BD4602B080BDC04680B500AFBD4680BD80B500AF094B0A4A1A600A4B0C221A60012000F07BF8084B181C00F04BF8064B181C00F00A
:400DC00039F8BD4680BDC0460001054000060102240105401BB7000090B583B000AFFC1D00F068FC031C2370084B084A126801210A431A60FB1D1B78181C00F05FFC012058
:400E0000182100F033F8BD4603B090BD0000054080B500AF064B1B78002B04D1FFF7BEFF034B01221A70FFF7D7FFBD4680BDC046FE00002080B582B000AF7860034B7A6852
:400E40001204120C1A60BD4602B080BD0801054080B582B000AF7860034B7A681204120C1A60BD4602B080BD1401054090B585B000AF786039603C1C0F3400F01BFC031C11
:400E80002370084B3A687968081C9040021C1A603B1C0F331B78181C00F010FCBD4605B090BDC0460800054080B582B000AF7860024B7A681A60BD4602B080BD3801054082
:400EC00080B584B000AF021CFB1D1A700E4B1B68DAB23B1C0F3340218A431A70FB1D1B789B01DAB240231340D9B23B1C0F333A1C0F3212780A431A70034B3A1C0F3212784D
:400F00001A60BD4604B080BD0001044080B500AF00F05EF8BD4680BD80B500AF054B054A1268802109060A431A6000F017F8BD4680BDC0460000074080B500AF064B1B78CC
:400F4000002B04D1FFF7E2FF034B01221A70FFF7E3FFBD4680BDC0460001002080B500AFBD4680BD80B582B000AF00237B60044B1B687B607B68181CBD4602B080BDC0466C
:400F80004003074080B582B000AF054B1A680F2313407B607B68181CBD4602B080BDC0460803074080B582B000AF7860C046064B1A680F231340082BF9D0044B7A681A600B
:400FC000BD4602B080BDC046080207404002074080B500AF174B184A1A60184B00221A60174B01221A60174B174A1A60174B07221A60174B00221A60164B01221A60164B60
:40100000114A1A60154B00221A60154B00221A60144B00221A60144B00221A60134B00221A60134B04221A60124B00221A60BD4680BDC046000007400B00000240000740DB
:401040004800074000030740070000800403074010030740440007400002074004020740880E0740C80E0740480F0740080F0740C80F0740880F074080B582B000AF00231C
:401080007B60FFF77FFF031C002B03D0FFF76AFF031C7B60084B1A68D8239B00134005D000237B60044BD82292001A607B68181CBD4602B080BDC046C00F074080B582B0F9
:4010C00000AF786000F048F87B68181C00F008F8032000F011F800F035F8BD4602B080BD80B582B000AF7860024B7A68DA66BD4602B080BD0000002090B585B000AF021C51
:40110000FB1D1A701E23FB603C1C0B3400F0D2FA031C23700A4B0A4A126892009108FA1D1078FA68041C9440221C0A431A603B1C0B331B78181C00F0C1FABD4605B090BD18
:4011400008E400E080B500AF024B802212011A60BD4680BD00E100E080B500AF024B802212011A60BD4680BD80E100E080B500AF00F02CF8BD4680BD80B500AF054B054AA6
:401180001268802109060A431A6000F017F8BD4680BDC0460000064080B500AF064B1B78002B04D1FFF7E2FF034B01221A70FFF7E3FFBD4680BDC0460801002080B500AFEE
:4011C0000A2000F0FBFABD4680BDC04680B500AF234B234A12680C210A431A60214B00221A60214B214A1A60214B224A1A60224B00221A60214B00221A60214B1D4A1A6064
:40120000204B00221A600A2000F0EEFA0A20032100F080FA1C4B0A20191C00F055FA1B4B00221A601A4B00221A601A4B00221A60194B1422FF321A60184B00221A60184B3D
:4012400000221A60174B10221A70174B00221A80164B00221A60164B00221A60BD4680BD700006400000064060000640770800800003064007010080040306401003064044
:401280000002064004020640E5180000C80E0640880E0640480F0640080F0640C80F0640880F06405502002064020020740200205C02002080B586B000AFF860B9607A603B
:4012C0003B6004237B61BB68002B20D0324B1B78DBB2102B0CD10A2000F086FA2F4B1A680123134001D0082300E000237B610EE0294B1B78DBB2602B09D1294B1B889BB22A
:40130000082293439AB2264B1A8000237B617B69002B38D1204B28221A70224B00221A60214B00221A60214B7A681A60204BBA681A603B68DAB21F4B1A70FB685A00FF231E
:401340001340FB60164B1B889BB2022293439AB2134B1A80184B194A1A60194B40221A603A680123134005D000F002F9154BFA681A6005E0134BFA681A60134B02221A6080
:40138000124B40221A600A2000F018FA7B69181CBD4606B080BDC046550200206400064064020020580200205C02002060020020780200206C020020000F064017030000FC
:4013C000800F06404002064068000640880F064080B586B000AFF860B9607A603B6004237B61BB68002B20D0374B1B78DBB2102B0CD10A2000F0F8F9344B1A680123134087
:4014000001D0082300E000237B610EE02E4B1B78DBB2602B09D12E4B1B889BB2082293439AB22B4B1A8000237B617B69002B43D1254B29221A70274B00221A60264B7A6858
:401440001A60264BBA681A603B68DAB2244B1A70FB685A00FF23134001221343FB601C4B1B889BB2012293439AB2194B1A801D4B1D4A1A603A680123134005D000F078F886
:401480001A4BFA681A6005E0184BFA681A60184B02221A60104B1B68072B03D8154B04221A6009E0144B144A1268802149000A431A60104B08221A600A2000F07FF97B6995
:4014C000181CBD4606B080BD5502002064000640640200207402002070020020680200206C020020000F0640170300004002064068000640C80F06406000064080B582B00C
:4015000000AF0A2000F070F90B4B1B889BB27B600A4B1B78DAB220231340DBB2002B03D07B68042213437B600A2000F047F97B68181CBD4602B080BD640200205502002029
:4015400080B582B000AF0A2000F04EF9074B1B889BB27B60054B00221A800A2000F02EF97B68181CBD4602B080BDC0466402002080B582B000AF264B1B687B60C04600F01A
:401580004FF8031C002BFAD0002000F057F8214B204A12680F218A431A601F4B1E4A1268520052081A607A682023134011D0002000F044F80A2000F05BF9012000F03EF8DE
:4015C000C04600F05FF8031C002BFAD00A2000F04FF9002000F032F80A2000F049F90F4B01221A600C4B0C4A1268802109060A431A60084B074A12680F218A430E210A4366
:401600001A60012000F01AF8BD4602B080BDC0466400064010000140000006406800064080B500AF044B1A68022313405B08DBB2181CBD4680BDC0460404044080B584B0DA
:4016400000AF021CFB1D1A700D4B1B68DAB23B1C0F3301218A431A70FB1D1A7801231340D9B23B1C0F333A1C0F3212780A431A70034B3A1C0F3212781A60BD4604B080BD68
:401680000004044080B500AF044B1B68DAB201231340DBB2181CBD4680BDC046040404400230800804D0C0460138FDD1C046C046C0467047EFF3108072B6704780F3108816
:4016C0007047C046C046C04680B584B000AF021C3960FB1D1A7080239B05FB60FB1D1B781F2B02D9002000F095F8FB1D1B7810339B00FA68D3181B68BB60FB1D1B78103343
:401700009B00FA68D3183A681A60BB68181CBD4604B080BD90B587B000AF0A1CFB1D011C1970BB1D1A70BB1D1B78032B02D9002000F070F8FB1D1B781F2B02D9002000F01D
:4017400069F8FB1D1A7803231340DB0006337B613C1C1334FFF7AEFF031C2370FB1D1B789B08DBB29B0014495B181B68FB607B690322111C99400B1CDA43FB681340FB6079
:40178000BB1D1A787B69111C99400B1CFA681343FB60FB1D1B789B08DBB29B00064A9B18FA681A603B1C13331B78181CFFF786FFBD4607B090BDC04600E400E080B582B02F
:4017C00000AF021CFB1D1A70064BFA1D11781F220A400121081C9040021C1A60BD4602B080BDC04600E100E080B582B000AF021CFB1D1A70064BFA1D11781F220A40012123
:40180000081C9040021C1A60BD4602B080BDC04680E100E080B582B000AF021CFB1D1A7001BEBD4602B080BD80B582B000AF786008E00C4B1B68181CFFF732FF7B680A4A1A
:401840009B187B607A6880231B029A42F1D8074B1B687A685343181CFFF722FFBD4602B080BDC046DC0000200080FFFFD400002080B582B000AF021CBB1D1A80BB1D1B8874
:40188000044A12785343181CFFF70AFFBD4602B080BDC046D800002080B584B000AF021CFB1D1A700E4B1B68DAB23B1C0F3320218A431A70FB1D1B785B01DAB220231340FD
:4018C000D9B23B1C0F333A1C0F3212780A431A70034B3A1C0F3212781A60BD4604B080BD0001044080B582B000AF00233B60C34B1B68002B02D0C14B1B689847C04B1A684D
:401900000123134002D0BF4B00221A60BE4B1B78DAB220231340DBB2002B3CD0BB4B1A6880235B0013400AD0B94B1B889BB2C022920013439AB2B64B1A8001233B60B34B21
:401940001A68012313400AD0B14B1B889BB29022920013439AB2AE4B1A8001233B603B68002B18D0A84B1B78DAB201231340DBB2002B01D0012300E00223A54A128892B2B2
:4019800091B21A1C0B1C13439BB29AB2A04B1A809D4B00221A709C4B1B78DAB220231340DBB2002B00D1ACE1984B1A68102313401CD0984B10221A60934B1B78DAB2012346
:4019C0001340DBB2002B01D0012300E00223904A128892B291B21A1C0B1C13439BB29AB28B4B1A80884B10221A70C0E1864B1B78DAB208231340DBB2002B29D0834B1A688C
:401A0000022313400ED0834B02221A60804B1B889BB28822920013439AB27D4B1A8001233B6015E0784B1B78DAB201231340DBB2002B03D0744B25221A7009E0724B2422D5
:401A40001A70754B1B68002B02D0744B10221A606D4B1B78DAB204231340DBB2002B00D113E1694B1B78DAB201231340DBB2002B5CD06B4B1A680823134034D0694B1A6845
:401A8000694B19680F231940684B1B68CB18D31A7B607B68082B02D908237B600DE07B68002B0AD1624B624A1168624A0A401A6008237B6001233B6011E010E05E4B1A68A5
:401AC0005A4B1B68D2185D4B1B68DBB21370574B1B685A1C554B1A607B68013B7B607B68002BEBD11EE04E4B1A680423134019D0514B1A684D4B1B68D218504B1B68DBB2D6
:401B000013704A4B1B685A1C484B1A60474B1A68444B1B689A4203D2494B04221A6001E001233B60474B484A1A60AEE0374B1A680223134032D0374B02221A60434B1A6802
:401B4000434B19680F231940414B186880231B02034001D0012300E00023CB18D21A3B4B1A603A4B1A683B4B1A60294B1B889BB28422920013439AB2254B1A80364B364AA5
:401B80001268802149020A431A60334B324A1168324A0A401A6001233B6076E0304B1A681023134066D015E0284B1A681A4B1B689A420ED22B4B2C4A1168244A12688A18FA
:401BC0001278D2B21A60214B1B685A1C1F4B1A6000E005E01E4B1A680F231340082BE3D11A4B1A680C4B1B689A4202D10B4B40221A601E4B1E4A1A6047E0C0460C010020B1
:401C00008C0E0640880E0640550200200C0F064064020020000F064060020020880F0640CC0F064070020020080306407402002060000640FFFEFFFF680200204003064088
:401C400068000640C00F0640ED0F000058020020080206405C02002004020640FFFFFEFF8C0F06404002064078020020800F0640F30700003F4B1A684023134005D03E4B24
:401C80001A683E4B1A6001233B603B68002B6ED03B4B3B4A11683B4A0A401A603A4B00221A603A4B00221A60394B1B78DAB202231340DBB2002B19D0364B1B78DAB2012345
:401CC0001340DBB2002B01D0092300E00A23324A128892B291B21A1C0B1C13439BB29AB22D4B1A802B4B60221A7040E02B4B2C4A116820220A4001D0182200E010221A60AA
:401D000035E0244B1B78DAB210231340DBB2002B2DD1244B234A1268520052081A601D4B10221A70164B164A11681F4A0A401A60134B134A11681D4A0A401A60124B0022DF
:401D40001A60124B00221A60194B1A4A1A601A4B1A4A1A601A4B1B4A1A601B4B1B4A1A60104B104A1268802109060A431A60BD4602B080BD8C0F0640580200205C02002071
:401D800060000640FFFEFFFFC80F0640880F06406C0200205502002064020020680006406400064000000640FF5FFFFFFFFCFFFF800F0640ED0F0000C00F0640F30700002A
:401DC000400F0640FF0F0000000F06401703000070B50E4B0E4D0024ED1AAD101E1CAC4204D0A300F35898470134F8E700F056F8084B094D0024ED1AAD101E1CAC4204D068
:401E0000A300F35898470134F8E770BDA81E0000A81E0000A81E0000B01E0000031C8218934202D019700133FAE770470000000084050000CE050000CE050000CE050000BD
:401E4000CE050000C6050000CE05000092050000CE050000CE050000A405000076050000CE050000CE050000CE050000CE050000CE050000CE050000CE050000680500005E
:401E8000CE050000BE050000B60500000400000000300F40000400400F400004F8B5C046F8BC08BC9E467047E5020000110D0000F8B5C046F8BC08BC9E467047BD02000067
:401EC000D01E0000C800002018000000A001000000000000C0F1FF0F00366E01C05D0000180000000000E02E000000000000000000000000000000000000000000000000AC
:401F000000000000000000000000000000000000000000000000000000000000000000000000000000000000000000000000000000000000000000000000000000000000A1
:401F40000000000000000000000000000000000000000000000000000000000000000000000000000000000000000000000000000000000000000000000000000000000061
:401F80000000000000000000000000000000000000000000000000000000000000000000000000000000000000000000000000000000000000000000000000000000000021
:401FC00000000000000000000000000000000000000000000000000000000000000000000000000000000000000000000000000000000000000000000000000000000000E1
:0200000490303A
:02000000E77B9C
:0200000490402A
:200000000000000000000000000000000000000000000000000000000000000000000000E0
:0200000490501A
:0C000000000204C81193110104D1F90E94
:0200000490600A
:0100000001FE
:00000001FF