:400000000010002011000000F50B0000F50B000080B500AF00F0F2FD80B584B000AF021CFB1D1A70204A3B1C0B3312781A701F4A3B1C0A3312781A700423013BFB6018E00A
:400040001B4B1868391C0B31FA68131C5B009B18C3185B780B70164B1868391C0A31FA68131C5B009B18C3189B780B70FB68013BFB60FB68002B0ADB0D4B1968FA68131CF1
:400080005B009B185B5CFA1D12789A42D8D9094B3A1C0B3212781A60074B3A1C0A3212781A60BD4604B080BDCCF1FF0FCDF1FF0FCC0000201CFF0B4020FF0B4080B500AF4F
:4000C0001C4B1C4A12688021C9020A431A601820FFF7A2FF184B19221A60052001F018F8164B174A1278D2B21A60052001F024F8104B104A1168134A0A401A60124B134AF4
:400100001A60134B10221A60124B30221A60124B20221A60114B802212061A60104B114A1A60114B114A1A60114B124A1A60BD4680BDC04600010B402CFF0B4028FF0B405C
:40014000E5F1FF0FFFFFFBFF04010B4006000080080202400C0202402002024008010B40000002400E000080400002402700008080000240CF00008080B582B000AF72B631
:40018000FB1D00221A7023E0FB1D1A78131C5B009B185B00394A9B183B603B681A78597809020A43997809040A43DB781B0613431A1C3B6819795B791B020B439BB2101CAF
:4001C000191C00F099FDFB1D1A78FB1D01321A70FB1D1B78012BD7D9294B992212041A60284BEE2212021A60274BEE221A60274B20221A60264BC42292021A60254B20222D
:400200001A60254BC02252031A60244BD82212011A60234B03221A60224B24221A60224B992212041A60214B992212041A60204B992212041A601F4B1E4A1278D2B20221CB
:400240000A43D2B21A701C4B1B4A1278D2B23C218A43D2B214210A43D2B21A70154B154A1278D2B216210A43D2B21A70FFF726FF00F052FDBD4602B080BDC0469431000095
:40028000000001400C000140100001400000044008000440180004400801044008030440000404400804044000500F4010500F4030500F4000700F4001700F4010B5064C8C
:4002C0002378002B07D1054B002B02D0044800E000BF0123237010BDE0000020000000008431000008B5084B002B03D00748084900E000BF07480368002B03D0064B002B6E
:4003000000D0984708BDC0460000000084310000E4000020C80000200000000080B500AF00F008F800F094FB00F0CAFB00F05EFC62B6FEE780B582B000AFFB1D00221A7079
:4003400032E0FB1D1A78334B920001214942D150FB1D1A78304B920001214942D150BB1D00221A7010E0FB1D1978BB1D1A782B4B642041438A18520001214942D152BB1DBD
:400380001A78BB1D01321A70BB1D1B78052BEAD9FB1D1A78224B920001214942D150FB1D1A78FB1D01321A70FB1D1B78632BC8D91C4B184A1A601C4B174A1A607B1D0022A9
:4003C0001A7014E07B1D1A787B1D1B78C8215943124BC918154B9200D1507B1D1B78144AFF21D1547B1D1A787B1D01321A707B1D1B78052BE6D90F4B094A1A600E4BFF224C
:400400001A700E4BFF221A700D4BFF221A70BD4602B080BD7C0700200C090020B402002018010020100100200801002064070020AC02002014010020A80200200C01002073
:40044000A9020020F0B593B000AF381C4730786000239C4660467C68207000230024BB62FC62BB6AFC6ABB63FC63381C37300024A446634603703BE0381C37300078844691
:4004800056486446A400A4466346185800281BDB381C37300078844650486446A400A44663461858011CC017021CBB6BFC6BBB61FC61BB69FC695B1854413B627C623B6A80
:4004C0007C6ABB63FC6309E0381C473000788446381C47300124A44463460370381C373000788446381C37300124A44463460370381C373000786328BED93A1C4732127820
:4005000064218A1A092A63DD3A1C4732127864218A1ABA60D217FA60B86BF96BBA68FB6800F008FF031C0C1CBB63FC63BB6BFC6B181C211C0A22002300F0FCFE031C0C1CFB
:40054000191C221C0B1C141C980FA5007D617D6905437D61980038613B697C695B185441DA0E660116435D01191C221C4919724128235B42DC175B185441181C211C00F0E7
:4005800017FF031C3B63386B154900F0ABFE031C002B02D0124B3B6308E0386B114900F0B5FE031C002B01D00E4B3B63386B0E4900F06CFF031C181C191C00F067FF031CCB
:4005C000181C00F0DBFE031CDAB2084B1A7002E0064B00221A70BD4613B0F0BD7C07002000009CC10000A0420000A041A8020020F0B587B000AF381C1730002505700025B2
:400600000026BD60FE60F81D0025057021E0F81D05783348AD00285800280EDBF81D05782F48AD002858011CC017021CBD68FE686D185641BD60FE6006E0381C17300578B6
:40064000381C173001350570F81D0578F81D01350570F81D00786328D9D93A1C1732127864218A1A092A34DD3A1C1732127864218A1A131CD217141CB868F9681A1C231CF2
:4006800000F058FE031C0C1CBB60FC60BB68FC68181C211C0A22002300F04CFE031C0C1CDAB2BB1D64214A431A70BB1D1B78002B03D1BB1D01221A7006E0BB1D1B78642B9F
:4006C00002D9BB1D64221A70064BBA1D12781A7002E0044B00221A70BD4607B0F0BDC0460C0900200C010020F0B589B000AF051CF81D0570381C1F3000250570002500268F
:400700003D617E61381C0F300025057037E0F81D0678381C0F3005783A483860642084466046464375196D003E68A85B00B2002817DBF81D0678381C0F30057831486422AC
:4007400094466246564375196D00285A00B2011CC017021C3D697E696D1856413D617E6106E0381C1F300578381C1F3001350570381C0F300578381C0F3001350570381C01
:400780000F3000786328C2D93A1C1F32127864218A1A092A2DDD3A1C1F32127864218A1A131CD217141C386979691A1C231C00F0C1FD031C0C1C3A1C0E3213703B1C0E3385
:4007C0001B78002B04D13B1C0E3301221A7008E03B1C0E331B78642B03D93B1C0E3364221A70FB1D1B78084A391C0E310978D15404E0FB1D1B78044A0021D154BD4609B0E5
:40080000F0BDC046B4020020AC020020F0B587B000AF381C17300025057000250026BD60FE60F81D0025057021E0F81D05783448AD00285800280EDBF81D05783048AD0028
:400840002858011CC017021CBD68FE686D185641BD60FE6006E0381C17300578381C173001350570F81D0578F81D01350570F81D00786328D9D93A1C1732127864218A1A12
:40088000092A36DD3A1C1732127864218A1A131CD217141CB868F9681A1C231C00F04AFD031C0C1CBB60FC60BB68FC68DBB2C822D20153433B603B68181CFA23990000F0EE
:4008C0009DFC031C1A1CBB1D1A70BB1D1B78002B03D1BB1D01221A7006E0BB1D1B78642B02D9BB1D64221A70064BBA1D12781A7002E0044B00221A70BD4607B0F0BDC04690
:4009000018010020A902002080B582B000AF78600B4B1B687A6812681A60094B1B681A1D074B1A60064B1A68064B9A4202D9044B054A1A60FFF786FDBD4602B080BDC046D8
:4009400010010020080900207C07002080B582B000AF78600B4B1B687A6812681A60094B1B681A1D074B1A60064B1A68064B9A4202D9044B054A1A60FFF73AFEBD4602B025
:4009800080BDC04608010020980A00200C09002080B582B000AF021C3960FB1D1A70FB1D1A78184B9200D3583A6812881A80FB1D1B78144A99008A58911C124A9B009950B4
:4009C000FB1D1A780F4B9200D258FB1D1B78C8214B43191CC6310C4BCB189A420AD9FB1D1A78FB1D1B78C8215943074BC918054B9200D150FB1D1B78181CFFF775FEBD4695
:400A000002B080BD64070020B402002080B582B000AF78600B4B1B687A6812681A60094B1B681A1D074B1A60064B1A68064B9A4202D9044B054A1A60FFF7E8FEBD4602B06B
:400A400080BDC04614010020A40200201801002080B500AFBD4680BD80B582B000AF786039607B6800221A603B6800221A6000235BB2181CBD4602B080BDC04680B582B0D3
:400A800000AF78607B6800221A6000235BB2181CBD4602B080BDC04680B584B000AF021C3960FB1D1A703B1C0F3300221A703B6800221A8000235BB2181CBD4604B080BD67
:400AC00080B500AF154B00221A60154B00221A60144B00221A80134B00225A80114B00229A80104B0022DA800E4B00221A810D4B00225A810C4B00221A600C4B181C00F05D
:400B0000AFFA0B4B181C00F00BF900F03FFA00F09DF9012000F0FEF9BD4680BDB00A0020A80A00209C0A0020AC0A0020D50B0000350B000080B582B000AF002000F0EAF926
:400B4000204A214B101C191CFFF786FF1D4B181CFFF7DAFE1C4B181CFFF7F8FEFB1D00221A701AE0FB1D1B785A00184BD318FA1D1278101C191CFFF78FFFFB1D1B785A0036
:400B8000124BD318FA1D1278101C191CFFF700FFFB1D1A78FB1D01321A70FB1D1B78052BE0D90B4B181CFFF769FF094B181CFFF72DFF012000F0AEF9012000F09FF9BD46ED
:400BC00002B080BDB00A0020A80A00209C0A0020AC0A002080B500AF024B034A12681A60BD4680BDC00F0740CC0F074080B500AFBD4680BD80B500AFFEE7C04680B586B076
:400C000000AF224B7B61224B3B61204B7B6135E03B691B68FB603B695B68BB603B699B683B6000237B600CE0FB681A68BB681A60BB680433BB60FB680433FB607B68043321
:400C40007B607A683B689A42EED13B69DB683B6000237B6008E0BB6800221A60BB680433BB607B6804337B607A683B689A42F2D13B6910333B617B69013B7B617B69002B36
:400C8000C6D102F051FAFFF749FBFEE7010000000432000080B582B000AF00237B600FE07B68032B04D8104B7A689200D35800E00E4B0F4A796889008B507B6801337B6057
:400CC0007B682F2BECD9FFF757FA0A4B00221A608023DB058022D205126801210A431A60BD4602B080BDC04600000000F50B000000000020C000002080B582B000AF786075
:400D000039607A683B68101C00211A1C02F032FABD4602B080BDC04680B500AFBD4680BD80B582B000AF786000F04CF87B68181C00F008F8032000F013F800F039F8BD466D
:400D400002B080BD80B582B000AF7860034A80237968D150BD4602B080BDC0460000002090B585B000AF021CFB1D1A700623FB603C1C0B3400F0D6F9031C23700B4B0B4A6C
:400D80001268C021101C8843011CFA1D1078FA68041C9440221C0A431A603B1C0B331B78181C00F0C3F9BD4605B090BD10E400E080B500AF024B802252021A60BD4680BD08
:400DC00000E100E080B500AF024B802252021A60BD4680BD80E100E080B500AF094B0A4A1A600A4B0C221A60012000F07BF8084B181C00F04BF8064B181C00F039F8BD4626
:400E000080BDC0460001054000060102240105401BB7000090B583B000AFFC1D00F082F9031C2370084B084A126801210A431A60FB1D1B78181C00F079F90120182100F0F4
:400E400033F8BD4603B090BD0000054080B500AF064B1B78002B04D1FFF7BEFF034B01221A70FFF7D7FFBD4680BDC046FC00002080B582B000AF7860034B7A681204120C09
:400E80001A60BD4602B080BD0801054080B582B000AF7860034B7A681204120C1A60BD4602B080BD1401054090B585B000AF786039603C1C0F3400F035F9031C2370084B08
:400EC0003A687968081C9040021C1A603B1C0F331B78181C00F02AF9BD4605B090BDC0460800054080B582B000AF7860024B7A681A60BD4602B080BD3801054080B582B0AA
:400F000000AF7860024B7A681A60BD4602B080BD3001054080B584B000AF021CFB1D1A700E4B1B68DAB23B1C0F3340218A431A70FB1D1B789B01DAB240231340D9B23B1C1D
:400F40000F333A1C0F3212780A431A70034B3A1C0F3212781A60BD4604B080BD0001044080B500AF00F028F8BD4680BD80B500AF054B054A1268802109060A431A6000F07D
:400F800017F8BD4680BDC0460000074080B500AF064B1B78002B04D1FFF7E2FF034B01221A70FFF7E3FFBD4680BDC0460001002080B500AFBD4680BD80B500AF174B184AF0
:400FC0001A60184B00221A60174B01221A60174B174A1A60174B07221A60174B00221A60164B01221A60164B114A1A60154B00221A60154B00221A60144B00221A60144BB3
:4010000000221A60134B00221A60134B04221A60124B00221A60BD4680BDC046000007400B000002400007404800074000030740070000800403074010030740440007406F
:401040000002074004020740880E0740C80E0740480F0740080F0740C80F0740880F074080B582B000AF786000F048F87B68181C00F008F8032000F011F800F035F8BD4687
:4010800002B080BD80B582B000AF7860024B7A68DA66BD4602B080BD0000002090B585B000AF021CFB1D1A701E23FB603C1C0B3400F038F8031C23700A4B0A4A126892002F
:4010C0009108FA1D1078FA68041C9440221C0A431A603B1C0B331B78181C00F027F8BD4605B090BD08E400E080B500AF024B802212011A60BD4680BD00E100E080B500AFDC
:40110000024B802212011A60BD4680BD80E100E00230800804D0C0460138FDD1C046C046C0467047EFF3108072B6704780F310887047C046C046C04680B582B000AF021CF5
:40114000BB1D1A80BB1D1B88044A12785343181CFFF7DEFFBD4602B080BDC046D8000020002934D00123002210B488422CD301242407A14204D2814202D209011B01F8E778
:40118000E400A14204D2814202D249005B00F8E7884201D3401A1A434C08A04202D3001B5C0822438C08A04202D3001B9C082243CC08A04202D3001BDC082243002803D0DB
:4011C0001B0901D00909E3E7101C10BC7047002801D00020C04307B4024802A14018029003BDC046D90000000029F0D003B5FFF7B9FF0EBC4243891A1847C046002941D042
:4012000010B4041C4C40A44601230022002900D54942002800D5404288422CD301242407A14204D2814202D209011B01F8E7E400A14204D2814202D249005B00F8E7884217
:4012400001D3401A1A434C08A04202D3001B5C0822438C08A04202D3001B9C082243CC08A04202D3001BDC082243002803D01B0901D00909E3E7101C6446002C00D5404271
:4012800010BC7047002806D003DB0020C043400801E08020000607B4024802A14018029003BDC046190000000029EBD003B5FFF7A7FF0EBC4243891A1847C0467047C04620
:4012C0008446081C6146FFE71FB500F0BDFA002801D40021C8421FBD10B500F043FA4042013010BD10B500F0AFFA002801DB002010BD012010BDC04610B500F0A5FA0028C3
:4013000001DD002010BD012010BDC04610B500F053FA002801DC002010BD012010BDC04610B500F049FA002801DA002010BD012010BDC046002B15D1002A13D1002900D111
:40134000002807D003DB0020C043410802E080210906002007B4024801A14018029003BD5DFFFFFF03B4684601B5029800F058F8019B9E4602B00CBC7047C0469E2110B597
:40138000C905041CFFF7CCFF002803D1201C00F01DFC10BD9E21C905201C00F0A1FA00F015FC80231B06C018F3E7C0460000000070B5164D144C021C061C0B1C1648A41836
:4013C0005D41854219D9520504D0F60AF302802636011E43081C01F0CBF90D4A0D4B00F037FF0D1C041C301C01F000FA2B1C221C00F00CFC01F02EFA70BD8542EAD1A01C09
:40140000E1D8E7E7C046C046FFFFFFFFFFFF1F00000000000000F041FFFF3F00C046C046F0B583B0161C1F1C0090019101F0DEFA041C0D1C221C2B1C301C391C01F0B4FA48
:40144000009A019B121A8B410899201C0A604B60291C03B0F0BDC046F0B583B0141C1D1C0090019101F09EFC221C2B1C061C0F1C01F09AFA009A019B121A8B410899301C41
:401480000A604B60391C03B0F0BDC046F8B543024400C50F4E024800240E2A1C9B09000EC90FB6098D425BD0221A002A00DC89E000281DD1002E00D075E0580704D00F2287
:4014C0001A40042A00D004338021C90419402A1C00293AD00134FF2C00D17FE09B015B0A5B02E4B2E405580AD20720431043F8BDFF2CE2D08021C9040E431B2A00DD2DE13E
:40150000311C2020D140821A9640721E96410E439B1B5801D1D59B019F09381C01F026FA421F974094425BDC141B1F231B1B3A1C9F40611C3B1CCA405F1EBB411343002493
:40154000BBE7131EB9D100230022DB08FF2C04D1002B43D08020C00303435B025B0ABFE7211A002940DD002823D0FF2CA5D08020C00406431B2900DDEEE0301C2027C84024
:40158000791A8E40711E8E4106439B19590100D493E70134FF2C55D0714901221A400B405B08134389E7013A002AB1D0FF2CA4D183E7002E00D180E701390029E5D0FF2CFE
:4015C000D8D17AE7002A1BD1621CD2B2012A4BDD9F1B7A0123D5F71A0D1C9EE700237FE75F4BA41A3B4068E7002946D1611CC8B2012829DDFF2924D0F3185B080C1C5CE774
:40160000002C13D0FF2818D08024E404524223431B2A4DDD0123F31A041C0D1C79E7002F00D07AE70023002200248EE7002B3BD0D243002AEFD0FF28EAD1331CFF240D1CCE
:401640003BE7FF24002380E7002C5CD1002B00D180E0002E00D130E79B19580100D42CE73F4A0124134028E7002C15D1002B40D1002E63D0331C0D1C1FE7002C21D1002B56
:4016800054D0C943002904D0FF284CD01B2958DD01239B19041C79E7002B19D1002E48D0331C0D1CFF2408E7331C041C0D1C04E71C1C2025D440AA1A93405A1E93412343A7
:4016C000A9E7FF282FD08024E40449422343DDE7FF24002E00D1F0E68022DB08D203134204D0F608164201D1331C0D1CDB00FF24E3E6002E00D1E0E69A1B500100D420E76B
:40170000F31A0D1CD9E6002B0DD0FF24002E00D1D3E68022DB08D2031342E7D0F6081642E4D1331CE2E7331CFF24C6E6331C041CC3E6802300229B04FF2406E7231C00223D
:4017400003E71C1C2027CC40791A8B40591E8B4123439EE7331CB0E6012616E70126D7E6FFFFFFFB4A02430270B55C0A550A43004A001B0EC60F120EC90FFF2B05D0FF2A5D
:4017800008D0012093420BD070BD0120002CFBD1FF2AF6D10120002DF6D101209342F3D1AC42F1D18E4205D0002BEDD1201C441EA041E9E70020E7E74A024302F0B55C0A64
:4017C000550A43004A001B0EC60F120EC90FFF2B31D0FF2A34D0002B16D1604260418446002A14D0002820D18E4217D1934215DC04DBAC4212D80020AC4212D270427041DF
:401800004042012318430CE0002AEDD194466F426F416046002805D1002FE5D0704201231843F0BD0020002FFBD148424841404201231843F5E7002CCBD002204042F0E7E5
:40184000002DC8D0F9E7C0464A024302F0B55C0A550A43004A001B0EC60F120EC90FFF2B27D0FF2A29D0002B10D0002A15D194466F426F416046002815D00020002F04D1CF
:4018800048424841404201231843F0BD604260418446002AECD00028F2D18E4211D0704201231843F1E7002FF7D0704201231843EBE70220002CE8D1D3E70220002DE4D111
:4018C000D1E79342EBDC04DBAC42E8D80020AC42DBD270427041404201231843D5E7C046F8B5C20F430244004D024800240E161C9B09000EC90FAD09FF2800D183E0012761
:4019000079408A425CD0221A002A00DC8EE000281ED1002D00D07AE0580704D00F221A40042A00D004338021C90401221940324000293AD00134FF2C00D183E09B015B0AC1
:401940005B02E4B2E405580AD20720431043F8BDFF2CE1D08021C9040D431B2A00DD31E1291C2020D140821A95406A1E95410D435B1B5801D0D59B019F09381C00F0F6FF71
:40198000421F974094425FDC141B1F231B1B3A1C9F40611C3B1CCA405F1EBB4113430024BAE7131EB8D100230022DB08FF2C04D1002B47D08020C00303435B025B0ABFE75B
:4019C000211A002944DD002827D0FF2CA4D08020C00405431B2900DDF2E0281C2027C840791A8D40691E8D4105435B19590100D492E70134FF2C59D0734901221A400B404D
:401A00005B08134388E7002D00D07AE777E7013A002AADD0FF2CA0D17EE7002D00D17BE701390029E1D0FF2CD4D175E7002A1BD1621CD2B2012A4BDD5F1B7A0123D5EF1ADE
:401A40000E1C9AE700237BE75F4BA41A3B4063E7002946D1611CC8B2012829DDFF2924D0EB185B080C1C57E7002C13D0FF2818D08024E404524223431B2A4DDD0123EB1A7F
:401A8000041C0E1C75E7002F00D076E70023002200248AE7002B3BD0D243002AEFD0FF28EAD12B1CFF240E1C36E7FF2400237CE7002C5CD1002B00D180E0002D00D12BE715
:401AC0005B19580100D427E73F4A0124134023E7002C15D1002B40D1002D63D02B1C0E1C1AE7002C21D1002B54D0C943002904D0FF284CD01B2958DD01235B19041C75E7C6
:401B0000002B19D1002D48D02B1C0E1CFF2403E72B1C041C0E1CFFE61C1C2026D440B21A93405A1E93412343A9E7FF282FD08024E40449422343DDE7FF24002D00D1EBE68B
:401B40008022DB08D203134204D0ED08154201D12B1C0E1CDB00FF24DEE6002D00D1DBE65A1B500100D41CE7EB1A0E1CD4E6002B0DD0FF24002D00D1CEE68022DB08D20315
:401B80001342E7D0ED081542E4D12B1CE2E72B1CFF24C1E62B1C041CBEE6802300229B04FF2402E7231C0022FFE61C1C2027CC40791A8B40591E8B4123439EE72B1CABE647
:401BC000012512E70125D3E6FFFFFFFB4302590A4300C20F1B0E00207E2B0DDD9D2B0CDC802000040143952B0ADC9620C31AD9404842002A00D1081C7047034BD018FBE7F5
:401C0000963B9940F4E7C046FFFFFF7FF8B55F46564644464D46F0B40C034D00CE0F610A440F2143C400180380465800400D8246D80F84464046400A530F0343D0006D0D0E
:401C4000371C83465246664500D1A4E0AF1A002F00DC09E1002A3BD1184300D0EAE0630700D187E00F232340042B00D182E0221DA242A4416442802309191B040B40371CFE
:401C8000141C002B00D17CE0CE4B01359D4200D105E1CD4BE40819404807490204430B0B002000211B031A0B0B0D6D051B0513436A08C64DFF071D4015436D006D08291C78
:401CC0003943201C3CBC90469946A246AB46F8BDBC488542C3D0802000040343382F00DDF0E01F2F00DD24E12020C01B1A1C814682405846F8400243944658464A46904098
:401D0000421E9041FB40624602431F1CA21A9442A4416442C91B091B141C0B029FD549024F0A002F00D1C8E0381C00F01FFE021C083A1F2A00DDB5E02821091A201C9740F2
:401D4000C84007439440954200DDB2E0551B691C1F2900DDDCE01F22551B3B1C221CAB40CA40AC40651EAC411343CF401C43391C002574E780231B040B40371C002B00D096
:401D800082E7904B4807E4080443C9089D4248D009030B0B84E7AA1A9446002A00DC98E05046002852D08748854200D157E78020000403436246382A00DDFCE01F2A00DD94
:401DC0004AE120226046101A1A1C82408246914658466246D0404A4602439046584652469040421E9041424602436046C3401219A242A441644259180919141C080200D426
:401E00002DE7704B01359D4200D122E16E4B60081940012323401C1C0443CB071C4349081DE7231C0B433AD080231B030B431B031B0B35E7013F002F65D15846221A944289
:401E4000A4416442C91A091B141C66E75846184300D104E70122524294446046002800D0C5E058460219C3E7002F73D1681C4005400D012800DCDEE05A46A21A9442BF41EB
:401E8000C81A7F42C71B380200D489E05A46141BA3459241591A52428F1A664641E700230024FDE6271C283887400024954200DC4CE74549AD1A3940D1E6201C00F056FD76
:401EC000203034E75A461A43531E9A41D2B200271CE7002A00D0DCE0681C4205520D012A00DC8DE0374DA84200D1F3E05D462A19A242A441644259180919CC0752081443AE
:401F00004908051CABE62F48854200D0E6E6A6E62B1C1F3B3A1CDA40131C20296CD03F22551BAF403C43601E84411C430021002595E6381C20381A1CC240101C202F5DD045
:401F40004022D71BBB405A461A43531E9A4102430027DBE6002D3BD01A4DAA4500D193E080252D047F422943382F00DDACE01F2F00DD29E12025ED1B081C261CA840FE40E9
:401F8000AC400643651EAC413443F9405D462C1BA34592415B1A5242991A55466646BCE6131C3B43141C002B00D0BAE60027002100250024E5E65A461A43531E9A41D2B2E1
:401FC000002314E7FF070000FFFF7FFFFFFF0F800D1C254358D0FF43002F51D1041BA3459241591A5242891A5546664695E69648854200D0DEE632E6002793E70023A2E784
:40200000081C2043002D00D0C4E0002800D1F7E05846184300D122E658460219A242A441644259180919141C0A0200D417E6874B0125194013E6081C2043002D39D10028DE
:4020400071D15946194303D0191C5C46664606E600270021002494E6604620381A1CC24060469146202800D1ACE04022121A93405A461A43531E9A414B461A430023B6E64C
:40208000714DAA4500D06FE7191C5C4655466646E5E5002D22D10D1C254377D0D543002D71D15C445C4592415918524289185546A4E600284DD15946194300D194E0191C4C
:4020C0005C466646604DCAE50C43611E8C41E4B200215BE7051C0021002452E65A4DAA4554D05542802210040143382D00DD81E01F2D00DD92E02022501B0A1C844682401C
:40210000201CE8400243904662469440601E844142461443E9405C445C459241CB185242991855466AE65846184300D197E55846271ABC429241C81A5242801A020266D5ED
:402140005846041BA3459241591A5242891A664685E55846184333D04807E40804438020C9080003014208D0DD08054205D15946CA085C071443291C6646630FC900194365
:40218000E400314D6BE5304A9245AED1191C5C46554664E5002836D05846184310D080254807E408C9082D0304432942E5D0D8082842E2D15D46EA085C071443011CDCE767
:4021C000214D4CE5002353E73D1C203D0A1CEA40151C202F34D04026F71BB9400C43611E8C412C430021D1E680210027C903164D0024C6E50C43611E8C41E4B200218AE77D
:40220000191C5C462BE5191C5C460F4D27E5031C3B4300D11CE7011C3C1C20E52020404240190A1CC2409046202D0BD04020451BA9400C43611E8C4145462C4300216AE79C
:402240000021CBE70021F4E7FF070000FFFF7FFFF0B5564644465F464D46F0B41F1C0B031B0B9A464B0087B0041C80465B0DC80F161C02938146002B68D0694B0299994255
:4022800032D08022534652031A43D200630F1A439246644AE000891880460291002400253B031B0B9B467800FB0F321C400D039300D175E05A4B984269D080225946520379
:4022C0000A43730FD2001A43564B9346C018F200002303994E4671401C430F2C00D9A9E0514EA4003459A74653461C4300D087E00025AA46A84608240225D1E74946022DE4
:402300006CD0032D00D117E2012D00D058E10D40EDB20024A9460023A0460020002125030A0D1C052D0B1205404B2A43134023435B004C465B08E207191C4046114307B088
:402340003CBC90469946A246AB46F0BD5346234350D05346002B00D184E1504600F006FB031E272B00DD76E128210D1A211C083B5246E9409A400D1C1543221C9A40AA46CF
:4023800090462B4B00241B1A0293002588E75B461E430323002E9CD1B3460022022398E75B46334321D05846002800D14EE100F0DDFA272800DD42E128210F1A021C311C0C
:4023C000083A5B46F94093400F1C1F43331C9340BB461A1C164B181A00237AE701230B4000249946A0460E4B97E70027BB46002201236EE7002104248A46884601254FE7BC
:402400000C2403254CE700258024A9462403A846034B82E7DA46904603991D1C6FE7C046FF07000001FCFFFFA0310000FFFF0F800DFCFFFF029F160C381804904046070CC0
:402440000004000C1204120C031C5343041C3D1C7443554398463B1C73436419A44644460293230C63449D4204D9029D802464022D1902951D0C039545462C041B04240C47
:402480001C1905945C46230C051C58432404240C8446381C604365435F438146CC44280C6044BB46814502D980277F02BB442D04070C2D0C000440195546BC462F04E34415
:4024C0008446280C3D0C2F1C5743B8462F1C77434243B94647463F0C9144BA46D14446434A4502D980225202B6184F463A0CB6183A0447463F043F0CB8462F1C67435D431B
:402500004443584365190190380C2D184244B846AC4204D9019880235B02C0180190039C029F201C6044C0196045A44147466442A4462B043C049946240C4C44A046D844E0
:402540008018C246E24490429241574652429146F219E245BF417F424B46BC46D845BF41D4187F4263461F432D0C7F19B24292414C45AD4152426D421543019E7D19AB19E2
:40258000E20D5B02059F134342023A439A46531E9A41C30D101C18436402204380465046C0010DD5454601225646049C6B082A401A43F30701341A43760804949046B24635
:4025C000049E634FF319002B61DD404640070BD00F2244462240042A06D042460432424580414042824490465546ED0107D5594B5646049F80201E40C000B2463B18564A34
:40260000934200DDEAE644465546E2086807104301226C025B050A408046240B5B0D91467BE6DA4690461D1C69E680242403574627421CD13C432403240B484B6DE6031C61
:40264000283B311C99408B460022C3E6301C00F08DF92030ADE6283B211C994000228A4690468EE6201C00F081F9203078E65846204207D1044303992403240B89469046D1
:40268000364B4AE63C432403240B344B45E6344B049E9B1B382B06DD01230B4000249946A046002339E61F2B25DC049C2D4D46466019524644468640DC4082405746301C1A
:4026C0002243DF40441EA04102433B1C540709D00F201040042805D0101D9042924152429B18021C1D021AD501230B4000249946A046012311E61C48049C5546001BC5404C
:40270000281C202B16D0194E5746A21997403A1C43461A43531E9A4102430023D6E758075B02D2081C0B01230B401043994680460023F2E50022EBE780242403504601234A
:40274000044319402403240B8946044BE5E5C046FF030000FFFFFFFEFE070000FF07000002FCFFFF1E040000E2FBFFFF3E040000F8B5041E31D0C70F00D04442201C00F00A
:40278000F5F8184D2D1A0A2819DD0B38844024036D05240B6D0D3A1C0026002000210B0D2403240B1B0523430F4C2D051C402C4364006408D307211C301C1943F8BD061CA0
:4027C0001536231CB3401E1C0B23181AC44024036D05240B6D0D3A1CDFE70022002500240026DAE71E040000FFFF0F8010B5041E28D000F0BBF8154A121A0A2815DD0B38EB
:40280000844024035205240B520D0023002000212403181C0B0D240B1B0523430C4C12051C4014436400610810BD031C1533211C99400B1C0B21081AC44024035205240BDD
:40284000520DE3E7002200240023DFE71E040000FFFF0F80F0B54B000D03420F5B0D6D0A15435A1C5205CC0FC600520D012A27DD394FDA19FE2A1ADC002A35DD8001ED008A
:40288000431E98412843760F3043430704D00F230340042B00D004308021C904014027D00132FF2A1DD083015B0AD1B201E0FF2100235802C905400AE40708432043F0BD7E
:4028C000002B06D1354311D10021002043025B0AEFE72E43EBD08020ED0080042843FF22D3E7FF210023E4E717320DDA05200022C008D1B2FF2AE9D10028D9D08023DB0333
:4029000003435B025B0AD4E78022144912041543C91A1F290DDC124A371C9B18281C9F4098403B1C5A1E93411843CE4030430022ABE70C4F2A1CFF1AFA40171C202909D07A
:40294000094A98188540281C3043461EB041384300229AE70020F7E780FCFFFF9E03000082FCFFFF7E030000A2FCFFFF1C2101231B04984201D3000C10391B0A984201D35D
:40298000000A08391B09984201D30009043902A2105C40187047C046040302020101010100000000000000009C460304F0B51B0C17043F0C150C1E1C041C000C7E436B436F
:4029C00047434543FB18300C1818874202D980235B02ED18030CED1863465C434A433604360CA118000480194919F0BDF0B544465F4656464D46F0B41C1C85B0002900DABC
:402A0000DBE00F1C0021061C8A46101C191C002C00DAC9E00196009089468046002951D1B84200D871E0FFF7A1FF002809D020234546311C1B1A85408740D940A8460F4397
:402A400086404246150C13041B0C291C381C9B46FEF786FB5B464343041C291C381C9946FEF7C2FB330C08041843814509D94044631E804500D978E1814500D875E1023CCC
:402A800040444946411A8946081C291CFEF768FB5A464243071C291C48469346FEF7A4FB36040904360C0E43B34507D946447B1EB04502D8023FB34500D81F1C240427430E
:402AC000002403E0B94211D9002400275246381C211C002A03D03B1C00215842A14105B03CBC90469946A246AB46F0BD081CFFF73DFF041E00D0BFE0B94500D242E1019D25
:402B00000099071C8D424741E0E7002804D101200021FEF725FB80464046FFF727FF002852D1414644460B043C1B1B0CA3460D0C00930124291C5846FEF712FB009F814611
:402B40004743291C5846FEF74FFB330C090419438F4208D94B464144013B884502D88F4200D91AE19946C91B8B46081C291CFEF7F7FA009B291C4343071C58460093FEF71F
:402B800033FB3604009D0904360C0E43B54207D946447B1EB04502D8023FB54200D81F1C49460E04374391E75246D243031C0C1C924600215842A1412CE7002746428F41CE
:402BC000012149428A4620E720231B1A4246351C82403C1CDD40DC4087402B1C150C3B43291C8640201C009317049046FEF7B8FA3F0C011C794381468B46201C291CFEF75C
:402C0000F3FA009C0904230C19438B450CD94B464144013B884500D9BDE08B4500D8BAE002225242914441445C460C1B201C291C0194FEF795FA391C4143041C8B4601980F
:402C4000291CFEF7D1FA009A090413041B0C19438B4509D94144631E884500D997E08B4500D894E0023C41445B46CB1A49469B460B041C4300975DE7009D20231B1A4A4676
:402C80008240DD401543391C009AD94082408846311C0092D9403A1C82400B1C134301932F0C2B041B0C391C40460293FEF758FA029A81464243391C40469346FEF794FABD
:402CC000019A0904130C19438B450AD94B464919013B8D425DD88B455BD902235B42994449195A468A1A101C391C0392FEF738FA029B80464343391C03989B46FEF774FA28
:402D0000019A090413041B0C19438B450AD943464919013B8D4238D88B4536D902235B42984449195D464D1BAB464946009D0F04424617432A04120C3B042D0C1B0C380C6D
:402D4000111C594342436B436843D3180D0C5B198C469A4202D98022520280181D0C401983450CD303D00024B0E61C1C89E665462A041B04120C9B18A6409E42F3D2013F2C
:402D80000024A3E600240127A0E69846CAE71C1C6AE79946A5E7994646E70222524291444144E0E6F0B55F4656464D464446F0B40D1C85B0061C9246984602900191039297
:402DC0001F1C141C8346A946002B59D1AA4269D9101CFFF7CBFD00280AD020231B1A311CD94085400B1C2B43864084409946B346250C23041B0C291C48469846FEF7B0F9D9
:402E00004646071C4643291C4846FEF7EDF95A460904130C19438E4209D909197B1E8C4200D957E18E4200D854E1023F0919891B8946081C291CFEF793F943464343061C6A
:402E4000291C48469846FEF7CFF95A46130409041B0C1943884508D90919731E8C4200D936E1023E884500D832E1380430430027391C05B03CBC90469946A246AB46F0BD73
:402E8000019A934262D8181CFFF770FD041E60D1019B9F4200D22CE1029F03998F4260410027E5E7002A04D101200021FEF758F9041C201CFFF75AFD002800D0B9E0230498
:402EC0002D1B1B0CA946260C98460127311C4846FEF746F941464143051C8A464846311CFEF782F95A460804130C1843824507D900196B1E844202D8824500D910E11D1C0D
:402F00005346C31A181C311C9A46FEF729F941464143814688465046311CFEF765F95A46130409041B0C194388450BD94B460919013B8C4200D9CFE0884500D8CCE002231A
:402F40005B42994428044946084391E7002700208EE720231B1A424657468240DF401743524682400192321CDA40291CD9408540131C2B4302933D0C3B041B0C8846081C7A
:402F8000291C9A46FEF7ECF8534643438146291C40469B46FEF728F9029A0904130C19438B4506D94B46C919013B8F4200D8ABE099465A468A1A101C291C9346FEF7D0F88B
:402FC00053464343291C804658469A46FEF70CF9029A090415042D0C29438A4506D94346C919013B8F4200D886E098465746CF1BBA464946019F0804424610433D042D0C6F
:4030000003043F0C1B0C020C291C594355437B437A43EB180F0CDB198C469D4202D980277F02D2191D0C521992455FD356D000271EE720231B1A311C2F1CD940DF40854068
:403040000B1C84402B4386400193B3462304260C1B0C381C311C9846FEF782F842464243051C311C381C9146FEF7BEF8019F09043B0C1943894507D909196B1E8C424DD849
:4030800089454BD9023D09194A468A1A101C311C9246FEF765F843464343071C311C50469946FEF7A1F8019A090413041B0C1943894507D909197B1E8C422DD889452BD914
:4030C000023F09194B46CB1A2D0499462F43FDE61E1CCAE61F1CAAE6994633E761460A041B04120C9B18A6409E42A0D201380027BEE600270120BBE68A4500D875E70223F2
:403100005B429844C91971E78B4500D850E702235B429944C9194CE71F1CD3E71D1CB3E7023D0019ECE6C04670B50E4B0E4D0024ED1AAD101E1CAC4204D0A300F3589847C7
:403140000134F8E700F04CF8084B094D0024ED1AAD101E1CAC4204D0A300F35898470134F8E770BDEC310000EC310000EC310000F4310000031C8218934202D019700133D3
:40318000FAE770470000000064F8FF7F010000000400000000300F40000400400F40000434240000222600002226000014240000FE220000FE2200000624000014240000C0
:4031C000FE22000006240000FE22000014240000FC220000FC220000FC2200002A260000F8B5C046F8BC08BC9E467047E5020000950C0000F8B5C046F8BC08BC9E4670476F
:40320000BD02000018320000C800002018000000D80900000000000000000000C0F1FF0F00366E01C05D0000180000000000E02E00000000000000000000000000000000FD
:40324000000000000000000000000000000000000000000000000000000000000000000000000000000000000000000000000000000000000000000000000000000000004E
:40328000000000000000000000000000000000000000000000000000000000000000000000000000000000000000000000000000000000000000000000000000000000000E
:4032C00000000000000000000000000000000000000000000000000000000000000000000000000000000000000000000000000000000000000000000000000000000000CE
:40330000000000000000000000000000000000000000000000000000000000000000000000000000000000000000000000000000000000000000000000000000000000008D
:0200000490303A
:02000000AA5DF7
:0200000490402A
:200000000000000000000000000000000000000000000000000000000000000000000000E0
:0200000490501A
:0C000000000204C81193110104D8BBF0E9
:0200000490600A
:0100000001FE
:00000001FF